:100000000C94B1000C94EF1A0C941C1B0C943F132D
:100010000C943F130C943F130C94D9000C94D9000A
:100020000C94D9000C94D9000C94D9000C94D900EC
:100030000C94D9000C94D9000C94D9000C94D900DC
:100040000C94451C0C94D9000C9468180C949A18C4
:100050000C94D9000C94D9000C94D9000C94D900BC
:100060000C9445100C94D900546865206C6967683D
:1000700074206C6576656C206973203A005468655D
:100080002054656D70657261747572652069733A8C
:10009000200041542B43434C4B3F0041542B4350D1
:1000A0004D533F002B43504D533A2022534D222CA9
:1000B0000041542B434D47463D31004F4B004154C6
:1000C0002B435245473F002B435245473A200041BE
:1000D000544530004F4B0041544530004F4B0041D8
:1000E00054004F4B004154004F4B004154004F4BC4
:1000F00000464F4E4100464F4E416E657400000071
:1001000000080002010000030407000000000000D6
:1001100000000102040810204080010204081020A1
:10012000010204081020040404040404040402026C
:100130000202020203030303030300000000230082
:100140002600290000000000250028002B000000E8
:100150000000240027002A00B5094812DC14CA1840
:10016000C50911241FBECFEFD8E0DEBFCDBF13E01D
:10017000A0E0B1E0ECE9FCE402C005900D92AA36E3
:10018000B107D9F726E0AAE6B3E001C01D92AE3B65
:10019000B207E1F711E0C0E6D1E004C02297FE010A
:1001A0000E949220C835D107C9F70E94361C0C94D2
:1001B00041260C9400008091D3039091D4030196C2
:1001C0009093D4038093D30361E08DE00E94A31D3C
:1001D00064E670E080E090E00E94BE1C82E00E9435
:1001E000D91D892BD9F360E08DE00C94A31D81E02B
:1001F0000E94DF1A81E08093C70361E08DE00E94D6
:10020000A31D68EE73E080E090E00C94BE1C83B701
:10021000817F846083BF83B7816083BF83B7816040
:1002200083BF889583B78E7F83BF83B78E7F83BF5D
:100230000895CF92DF92EF92FF928AE00E94D91D3B
:10024000892BE9F060E089E00E94A31D0E948F1CC9
:100250006B017C0180EDC80E87E0D81EE11CF11C0B
:100260000E948F1CC616D706E806F906C8F761E09B
:1002700089E0FF90EF90DF90CF900C94A31DFF904A
:10028000EF90DF90CF9008958F929F92AF92BF92A0
:10029000CF92DF92EF92FF924C010E948F1C6093ED
:1002A000B8037093B9038093BA039093BB03A12C56
:1002B000B12CC090B803D090B903E090BA03F0908D
:1002C000BB03C80CD91CEA1CFB1C0E948F1CC61661
:1002D000D706E806F90668F7FF90EF90DF90CF9019
:1002E000BF90AF909F908F900895CF92DF92EF9242
:1002F000FF928AE00E94D91D892B09F560E089E010
:100300000E94A31D0E948F1C6B017C0180EDC80E12
:1003100087E0D81EE11CF11C0E948F1CC616D70670
:10032000E806F906C8F761E089E00E94A31D80E1B4
:1003300097E2FF90EF90DF90CF900C944401FF90F4
:10034000EF90DF90CF900895CF92DF92EF92FF92DF
:100350000E948F1C6093B8037093B9038093BA0313
:100360009093BB0386ED93E00E94860D811125C01A
:1003700088EE93E00E94440186ED93E00E94860D92
:1003800081111BC0C090B803D090B903E090BA03AC
:10039000F090BB030E948F1C20E3C20E25E7D21E03
:1003A000E11CF11CC616D706E806F906D8F2FF9044
:1003B000EF90DF90CF900C941901FF90EF90DF90B9
:1003C000CF900895EF92FF920F931F93CF93DF93F7
:1003D000CDB7DEB7CB54D1090FB6F894DEBF0FBE50
:1003E000CDBF8C016EE571E080E196E00E949F191F
:1003F0004AE050E0B80180E196E00E94541A68EEAD
:1004000073E080E090E00E94BE1C0115110551F4DC
:100410000E9475010E94A40168E873E180E090E009
:100420000E94BE1CCE0101967C018BE4F701119263
:100430008A95E9F7C801880F991FFC01E753FC4F23
:1004400020813181FC01E259FC4F41814F93408171
:100450004F931F921F92FC01EE57FC4F41814F9327
:1004600040814F93FC01E858FC4F41814F934081FC
:100470004F93FC01E457FC4F81818F9380818F93D0
:100480003F932F93F801EE0FFF1FEE0FFF1FE05673
:10049000FC4F83818F9382818F9381818F938081A1
:1004A0008F93809112018F93809111018F9387E632
:1004B00091E09F938F93FF92EF920E947023A70188
:1004C00066E071E086ED93E00E94820B88EB9BE092
:1004D0000E94440162E971E080E196E00E949F1968
:1004E00088EE93E00E9444010FB6F894DEBF0FBE81
:1004F000CDBF0230110511F40E941901C55BDF4F19
:100500000FB6F894DEBF0FBECDBFDF91CF911F9124
:100510000F91FF90EF900895AF92BF92CF92DF922C
:10052000EF92FF920F931F93CF93DF93CDB7DEB778
:100530002B970FB6F894DEBF0FBECDBF0E94A4016B
:100540000EE181E04BE0B42E5AE0A52E2091B603D7
:100550003091B703482F50E0241735070CF467C0DB
:10056000E2EBF1E0DE0111969B2D01900D929A9540
:10057000E1F76A2D0E94F21F192F805D898780E3C1
:10058000890F8A87BE016F5F7F4F8091EB04909146
:10059000EC040E949F198091EB049091EC040E945E
:1005A000791988EB9BE00E944401612F86ED93E06E
:1005B0000E942F0C882329F00150C9F181E0810F9E
:1005C000C5CF88EE93E00E9444010E948F1C609387
:1005D000B8037093B9038093BA039093BB03612F60
:1005E00086ED93E00E942F0C8111E6CF88EE93E018
:1005F0000E944401612F86ED93E00E942F0C81112F
:10060000DBCFC090B803D090B903E090BA03F0906C
:10061000BB030E948F1C28E8C20E23E1D21EE11CFE
:10062000F11C6C157D058E059F05C8F6C5CF66EAE1
:1006300071E08091EB049091EC040E949F1910925C
:10064000B7031092B6030E9419012B960FB6F894C7
:10065000DEBF0FBECDBFDF91CF911F910F91FF90F5
:10066000EF90DF90CF90BF90AF900895CF92DF9240
:10067000EF92FF920F931F93CF93DF93CDB7DEB727
:10068000CC54D1090FB6F894DEBF0FBECDBF8E019A
:100690000F5F1F4F80E4F80111928A95E9F740E45B
:1006A00050E0B80186ED93E00E94270B882309F4FF
:1006B000E0C0B801CE01895B9F4F0E94B71B6DEB74
:1006C00071E080E196E00E9470194AE050E060918C
:1006D000C60380E196E00E94801A23E030E041E00A
:1006E00050E0BE01695B7F4FCE018F5B9F4F0E9440
:1006F000E51BCE018F5B9F4F0E942A1C162F072FF0
:10070000CE018F5B9F4F0E94491B60ED71E080E13D
:1007100096E00E9470194AE050E0612F702F80E14E
:1007200096E00E94541A125E1093C60326E030E051
:1007300044E050E0BE01695B7F4FCE018F5B9F4F6D
:100740000E94E51BCE018F5B9F4F0E942A1C609385
:10075000C503CE018F5B9F4F0E94491B29E030E00B
:1007600047E050E0BE01695B7F4FCE018F5B9F4F3A
:100770000E94E51BCE018F5B9F4F0E942A1C609355
:10078000C403CE018F5B9F4F0E94491B1092C3038D
:100790002CE030E04AE050E0BE01695B7F4FCE01C3
:1007A0008F5B9F4F0E94E51BCE018F5B9F4F0E9486
:1007B0002A1C6093C203CE018F5B9F4F0E94491B8E
:1007C0002FE030E04DE050E0BE01695B7F4FCE018D
:1007D0008F5B9F4F0E94E51BCE018F5B9F4F0E9456
:1007E0002A1C6093C103CE018F5B9F4F0E94491B5F
:1007F00022E130E040E150E0BE01695B7F4FCE0175
:100800008F5B9F4F0E94E51BCE018F5B9F4F0E9425
:100810002A1C6093C003CE018F5B9F4F0E94491B2F
:1008200060EC73E085ED93E00E9443161092C603DE
:100830001092C5031092C4031092C3031092C20316
:100840001092C1031092C003CE01895B9F4F0E949A
:10085000491BC45BDF4F0FB6F894DEBF0FBECDBFA0
:10086000DF91CF911F910F91FF90EF90DF90CF908C
:1008700008950E948F1C6093B8037093B90380930E
:10088000BA039093BB0388EE93E00E94440140E4D6
:1008900050E0B80186ED93E00E94270B811109CF4B
:1008A00040E450E0B80186ED93E00E94270B8111EF
:1008B00000CFC090B803D090B903E090BA03F09095
:1008C000BB030E948F1CF8EACF0EF1E6DF1EE11C8D
:1008D000F11C6C157D058E059F05C8F6EACE0F93B9
:1008E0001F93CF93DF93EC0181E10E94241DCC0F75
:1008F000DD1F8E0108581C4FF801918380836DE73E
:1009000070E080E196E00E944B19F80160817181EE
:100910004AE050E080E196E00E94971A8FE00E9442
:10092000241D8E0104571C4FF8019183808368E6D3
:1009300070E080E196E00E944B19F80160817181BE
:100940004AE050E080E196E00E94971A68EE73E07A
:1009500080E090E00E94BE1C61E08BE00E94A31D3D
:1009600064EF71E080E090E00E94BE1C8EE00E9487
:10097000241DFE01EE57FC4F9183808360E08BE0E5
:100980000E94A31D64EF71E080E090E00E94BE1C15
:1009900085ED93E00E941017C259DC4F998388833C
:1009A0006CED71E080E196E00E94701968817981B8
:1009B0004AE050E080E196E00E94971A64EF71E00F
:1009C00080E090E00E94BE1C6881798180E090E028
:1009D0000E94011F20E030E040E85EE30E948F1F8C
:1009E00020E030E040E151E40E948F1F20E030E041
:1009F00040EA50E40E94681E20E030E040E052E40B
:100A00000E94041E60936A0370936B0380936C03CF
:100A100090936D030E94D01E798368836CEE71E021
:100A200080E196E00E947019688179814AE050E087
:100A300080E196E0DF91CF911F910F910C94971A6E
:100A4000CF92DF92EF92FF920F931F93CF93DF939A
:100A5000EC010E94DC156093BC037093BD0380938E
:100A6000BE039093BF036091BC037091BD0380915E
:100A7000BE039091BF0340EC53E00E94D50DCC0F14
:100A8000DD1FCC0FDD1FC056DC4FA091C403B0E0CA
:100A900020E432E44FE050E00E9469206B017C01C9
:100AA000A091C503B0E020E031EE45EF55E00E9493
:100AB0006920C60ED71EE81EF91EC882D982EA82B6
:100AC000FB82E6ECEE2EE3E0FE2EF701008110E063
:100AD0000E51110966EC71E080E196E00E947019F8
:100AE0004AE050E0F701608180E196E00E94801AC0
:100AF00069EF71E080E196E00E947019A801662715
:100B000057FD6095762F2AE030E080E196E00E9464
:100B1000AD1AC090C203F4E6CF9E60011124EE240A
:100B2000D7FCE094FE2C88819981AA81BB81C80EF4
:100B3000D91EEA1EFB1E8091C103C80ED11CE11C08
:100B4000F11C20E137E2D8010E946220C60ED71EB8
:100B5000E81EF91EC882D982EA82FB8266E072E052
:100B600080E196E00E947019488159816A817B81F9
:100B70002AE030E080E196E0DF91CF911F910F9164
:100B8000FF90EF90DF90CF900C94AD1ACF92DF9250
:100B9000EF92FF920F931F93CF93DF93CDB7DEB702
:100BA000CB54D1090FB6F894DEBF0FBECDBF0E9463
:100BB000DC156093BC037093BD038093BE039093D8
:100BC000BF036091BC037091BD038091BE039091FF
:100BD000BF0340EC53E00E94D50D8E010F5F1F4F05
:100BE0008BE4F80111928A95E9F70E948F1C6093BB
:100BF000B8037093B9038093BA039093BB0386ED57
:100C000093E00E94A50D1816190664F488EE93E08F
:100C10000E94440186ED93E00E94A50D9093B703D6
:100C20008093B6038091B6039091B70397FD58C0A7
:100C300080E090E00E9420058091110190911201C6
:100C400089519C4F90931201809311011F921F9222
:100C50001F921F921F921F921F921F922091A30317
:100C60002F932091A2032F932091A1032F932091E2
:100C7000A0032F939F938F9385E192E09F938F938F
:100C80001F930F930E947023809111019091120184
:100C9000875E934090931201809311011092A003FC
:100CA0001092A1031092A2031092A303A80166E080
:100CB00071E086ED93E00E94820B88EB9BE00E943E
:100CC00044018091B6039091B7030FB6F894DEBF4C
:100CD0000FBECDBF18161906DCF50E948C0238C075
:100CE00086ED93E00E94A50D9093B7038093B60321
:100CF0008CED95E00E9444018091B6039091B7037A
:100D000097FF96CF8CED95E00E94440186ED93E02D
:100D10000E94A50D9093B7038093B603C090B803CB
:100D2000D090B903E090BA03F090BB030E948F1CEF
:100D300038E9C30E3AE3D31EE11CF11CC616D706F0
:100D4000E806F906C8F21092B7031092B603D4CFA2
:100D5000C55BDF4F0FB6F894DEBF0FBECDBFDF918E
:100D6000CF911F910F91FF90EF90DF90CF9008955A
:100D7000CF92DF92EF92FF920F931F93CF93DF9367
:100D800080E00E94211D60E08EE00E946A1D60E00C
:100D90008FE00E946A1D60E081E10E946A1D61E0AF
:100DA0008BE00E946A1D61E08DE00E946A1D61E097
:100DB00089E00E946A1D61E089E00E94A31D60E055
:100DC0008AE00E946A1D61E08AE00E94A31D60E043
:100DD00082E00E946A1D61E082E00E94A31D60E043
:100DE00083E00E946A1D61E083E00E94A31D0E94CF
:100DF000750126E040E05BE460E070E080E196E0B1
:100E00000E940C1840E05BE460E070E08DEE94E03E
:100E10000E9442146DEE74E086ED93E00E948F0C08
:100E20000E94A401CBEED4E065E372E08881998151
:100E30000E949F1988EE93E00E9444016FE372E0E4
:100E4000888199810E949F1988EE93E00E94440155
:100E500061E572E0888199810E949F1988EE93E094
:100E60000E94440166EA71E0888199810E949F197D
:100E700080ED97E00E9444016BE572E088819981E2
:100E80000E949F1988EE93E00E9444010E9436035D
:100E900088EE93E00E94440140E050E06BED70E08A
:100EA00080E00E94BF1A40E061E085ED93E00E947F
:100EB000C71661E085ED93E00E94F01640E062E025
:100EC00085ED93E00E94C71662E085ED93E00E94F5
:100ED000F0160E94C60588EB9BE00E9444010E9428
:100EE000DC156093BC037093BD038093BE039093A5
:100EF000BF034091BC035091BD036091BE0370914C
:100F0000BF032AE030E080E196E00E94AD1A8091B4
:100F1000BC039091BD03A091BE03B091BF03CC96DA
:100F2000A11DB11D8093BC039093BD03A093BE038C
:100F3000B093BF034091BC035091BD036091BE03C9
:100F40007091BF032AE030E080E196E00E94AD1A84
:100F50006091BC037091BD038091BE039091BF036B
:100F600040EC53E00E94D50DF4ECEF2EF3E0FF2EA1
:100F70004AE050E0F701608180E196E00E94791A32
:100F800060E672E080E196E00E94701902EC13E0E6
:100F90004AE050E0F801608180E196E00E94791A11
:100FA00060E672E080E196E00E947019A1ECCA2E22
:100FB000A3E0DA2E4AE050E0F601608180E196E09D
:100FC0000E94791A60E672E080E196E00E94701952
:100FD000C0ECD3E04AE050E0688180E196E00E94F6
:100FE000791A60E971E080E196E00E94701961E091
:100FF00085ED93E00E94F01640E061E085ED93E01E
:101000000E94C716F701E080F8010081F6012081F7
:10101000488160E070E085ED93E00E94251541E095
:1010200061E085ED93E00E94C71640E050E067EF75
:1010300070E081E00E94BF1A0E94190162E672E02E
:1010400080E196E0DF91CF911F910F91FF90EF909B
:10105000DF90CF900C949F19EF920F93CF93DF9373
:101060006BE672E080E196E00E949F1968E772E00B
:1010700080E196E00E9470196091C70370E04AE039
:1010800050E080E196E00E94541A64E872E080E14A
:1010900096E00E9470196091C80370E04AE050E049
:1010A00080E196E00E94541A68EE73E080E090E0E0
:1010B0000E94BE1C8091C703882309F442C161E0ED
:1010C00085ED93E00E94F016882309F43AC18091DF
:1010D000B4039091B5030E9420058091B4039091D0
:1010E000B5030E946F048091B4039091B5032091E1
:1010F000D3033091D403FC01EE0FFF1FE753FC4FE5
:10110000318320831092D4031092D30301969093DD
:10111000B5038093B4036EE571E080E196E00E9430
:1011200070196091B4037091B5034AE050E080E11A
:1011300096E00E94541A8091B4039091B5030397EE
:101140000CF0C8C00E94DC156093BC037093BD0313
:101150008093BE039093BF034091BC035091BD03A5
:101160006091BE037091BF032AE030E080E196E019
:101170000E94AD1A8091BC039091BD03A091BE0363
:10118000B091BF03CC96A11DB11D8093BC03909379
:10119000BD03A093BE03B093BF034091BC03509125
:1011A000BD036091BE037091BF032AE030E080E18F
:1011B00096E00E94AD1A6091BC037091BD038091CE
:1011C000BE039091BF0340EC53E00E94D50D61E057
:1011D00085ED93E00E94F01640E061E085ED93E03C
:1011E0000E94C71669E972E080E196E00E947019DA
:1011F0006091BC037091BD038091BE039091BF03C9
:1012000040EC53E00E94D50D4AE050E06091C403E9
:1012100080E196E00E94791A60E672E080E196E053
:101220000E9470194AE050E06091C20380E196E0AC
:101230000E94791A60E672E080E196E00E947019DF
:101240004AE050E06091C10380E196E00E94791A83
:1012500060E672E080E196E00E9470194AE050E09A
:101260006091C00380E196E00E94791A60E971E024
:1012700080E196E00E94701960ED77E080E090E0F8
:101280000E94BE1CE090C4030091C2032091C103E0
:101290004091C00360E070E085ED93E00E94251569
:1012A00041E061E085ED93E00E94C71640E050E028
:1012B00067EF70E081E00E94BF1A60E08DE00E945D
:1012C000A31D68EE73E080E090E00E94BE1C1092C7
:1012D000C70337C0C0E0D0E0CE010E94E2012196F2
:1012E000C530D105C9F71092B5031092B40366E971
:1012F00073E04CE853E028E733E0C0EAD3E0A2E82B
:10130000B3E080E090E0FB0111921192BF01FA017D
:1013100011921192AF01F901119211929F0119924C
:101320001992199219921D921D92FC01EE0FFF1F46
:10133000E753FC4F1182108201968530910519F711
:1013400001CF9091C8032091C70381E0281741F095
:10135000981731F0DF91CF910F91EF900C94070126
:10136000DF91CF910F91EF90089520E045E066E086
:101370008DEE94E00E94121467E086ED93E00E94E7
:10138000050A85ED93E00C94D0148DEE94E00C9456
:10139000B9138B5E9E4FDC018D919C91DC01ED9128
:1013A000FC910480F581E02D09948B5E9E4FDC0159
:1013B0008D919C91DC01ED91FC910190F081E02DEB
:1013C00009948B5E9E4FDC018D919C91DC01ED9127
:1013D000FC910680F781E02D09948B5E9E4FDC0125
:1013E0008D919C91DC01ED91FC910084F185E02DC3
:1013F00009948B5E9E4FDC018D919C91DC01ED91F7
:10140000FC910284F385E02D0994FC01262F1382C0
:10141000128248EE53E060E070E0448355836683B7
:10142000778381E293E0918380832487DF01A45F47
:10143000BE4F86EF90E011969C938E931296119674
:101440001C921E92129611961C921E92159611963F
:101450001C921E9213971C92ED5EFE4F81EF90E05E
:101460009183808308950F931F93CF93DF93EC01B3
:1014700000E010E0C801019608321105D8F48C0193
:10148000E881F9810480F581E02DCE010995892B51
:1014900051F0E881F9810680F781E02DCE010995B0
:1014A00000E010E0EDCF61E070E080E090E00E94AD
:1014B000BE1CE0CFDF91CF911F910F910895BF9295
:1014C000CF92DF92EF92FF920F931F93CF93DF9310
:1014D0007C01B42EC0E0D0E061157105B9F18B013B
:1014E0006C018BEEC81A8EEFD80ACE3FD10570F58D
:1014F000F60180819181DC01ED91FC910480F58100
:10150000E02D0995892BC1F0D6018D919C91DC01CC
:10151000ED91FC910680F781E02D09958D3041F326
:101520008A3021F4209721F3BB2081F0F701EC0FE2
:10153000FD1F85872196DCCF0150110939F061E04C
:1015400070E080E090E00E94BE1CCFCFF701EC0F6E
:10155000FD1F15868C2FDF91CF911F910F91FF906A
:10156000EF90DF90CF90BF900895EF92FF920F938E
:101570001F93CF93DF93EC018B017A010E94330A12
:101580006DEA72E080E196E00E947019B80180E196
:1015900096E00E949F19FE01EB5EFE4FB80180812C
:1015A00091810E949F1940E0B701CE010E945F0A1D
:1015B000182F64EB72E080E196E00E947019BE0182
:1015C000635F7F4F80E196E00E949F19812FDF913A
:1015D000CF911F910F91FF90EF900895EF92FF929E
:1015E0000F931F93CF93DF93EC018B017A010E943D
:1015F000330A6DEA72E080E196E00E947019B8014A
:1016000080E196E00E948D19FE01EB5EFE4FB8016D
:10161000808191810E948D1940E0B701CE010E9426
:101620005F0A182F64EB72E080E196E00E94701967
:10163000BE01635F7F4F80E196E00E949F19812F7A
:10164000DF91CF911F910F91FF90EF900895EF924E
:10165000FF920F931F93CF93DF938C017B01EA01DD
:1016600040E157E262E970E00E94EE0A47E050E094
:101670006AEC72E0C8010D960E941C23892B11F5BB
:10168000B8016C5E7F4FAE0141505109EB010990EA
:101690000020E9F72197C61BD70B4C175D0708F40C
:1016A000EA01AE014F5F5F4FC7010E942A23CE0DB2
:1016B000DF1D188240E064EF71E0C8010E945F0AFC
:1016C00081E001C080E0DF91CF911F910F91FF90E9
:1016D000EF9008950F931F93CF93DF93EC018A014E
:1016E000A9010E94B50AB801CE010D960E940C23F3
:1016F00021E0892B09F020E0822FDF91CF911F910B
:101700000F910895AF92BF92CF92DF92EF92FF9226
:101710000F931F93CF93DF93CDB7DEB76E970FB6BE
:10172000F894DEBF0FBECDBF8C015B016A0124EFD0
:1017300031E044ED52E065E372E00E946A0B8823D9
:1017400009F47BC08AE0E2E2F1E09E012F5F3F4FA7
:101750007901D90101900D928A95E1F7FE013B963E
:1017600084E1DF011D928A95E9F743E150E0B5017C
:10177000CE010A960E942A23F70101900020E9F782
:10178000319782E2808324EF31E041EB52E0B701F0
:10179000C8010E946A0B811102C080E04FC061EB5A
:1017A00072E080E196E00E947019B60180E196E057
:1017B0000E949F19B6017801BBEEEB1ABEEFFB0A3F
:1017C000F701808191810E949F19D7018D919C9191
:1017D0000E947919F70180819181DC01ED91FC91E2
:1017E0000190F081E02D6AE1099567ED72E080E1FA
:1017F00096E00E949F1940E060E177E2C8010E94F4
:101800005F0A7801BDE0EB0EF11C6AED72E0C701E2
:101810000E943923892B09F240E068EE73E0C80189
:101820000E945F0A64ED72E0C7010E940C2321E070
:10183000892B09F020E0822F01C081E06E960FB65F
:10184000F894DEBF0FBECDBFDF91CF911F910F91F6
:10185000FF90EF90DF90CF90BF90AF900895FF92F0
:101860000F931F93CF93DF93CDB7DEB72C970FB6AF
:10187000F894DEBF0FBECDBF8C01F62E24EF31E011
:1018800044ED52E065E372E00E946A0B882311F197
:101890009CE0E0EEF2E0DE01119601900D929A9547
:1018A000E1F78F2D64E60E94F21F805D8987892F02
:1018B0006AE00E94F21F805D8A87905D9B8720ED21
:1018C00037E044ED52E0BE016F5F7F4FC8010E94D8
:1018D0006A0B01C081E02C960FB6F894DEBF0FBEF4
:1018E000CDBFDF91CF911F910F91FF9008950F937E
:1018F0001F93CF93DF93EC018A01A9010E94EE0AA6
:10190000B801CE010D960E94CC2221E0892B09F06E
:1019100020E0822FDF91CF911F910F9108950F93B7
:101920001F93CF93DF93EC018C010B5E1E4FD80108
:101930006D937C9361E08C850E946A1D61E08C85CB
:101940000E94A31D6AE070E080E090E00E94BE1C4F
:1019500060E08C850E94A31D64E670E080E090E06A
:101960000E94BE1C61E08C850E94A31D68EB7BE099
:1019700080E090E00E94BE1CF80180819181DC0132
:10198000ED91FC910480F581E02D0995892B59F0AA
:10199000F80180819181DC01ED91FC910680F78155
:1019A000E02D0995E9CF24EF31E04EEE50E06BEEEB
:1019B00070E0CE010E94770C64E670E080E090E079
:1019C0000E94BE1C24EF31E048EE50E065EE70E06E
:1019D000CE010E94770C64E670E080E090E00E9407
:1019E000BE1C24EF31E042EE50E06FED70E0CE011E
:1019F0000E94770C64E670E080E090E00E94BE1CDC
:101A000024EF31E04CED50E067ED70E0CE010E9434
:101A1000770C64E670E080E090E00E94BE1C24EF4A
:101A200031E044ED50E06FEC70E0CE01DF91CF91FA
:101A30001F910F910C94770CCF92DF92EF92FF924F
:101A40000F931F93CF93DF93EB016A01122F0D9633
:101A50000E94DE227C010097D9F0CE010E94D5229F
:101A60008E0D9F1DF12CC12FDD27C7FDD095F016DF
:101A700041F0BE010E940123009751F00196F394BA
:101A8000F6CF0E948722F6019183808381E001C016
:101A900080E0DF91CF911F910F91FF90EF90DF9049
:101AA000CF9008958F929F92AF92BF92CF92DF9284
:101AB000EF920F93CF93DF931F92CDB7DEB74C0118
:101AC0006A015901202F0E2D44EF51E029830E9415
:101AD000EE0A2981A501B601C4010E941C0D8823CC
:101AE00041F040E064EF71E0C4010E945F0A81E0D0
:101AF00001C080E00F90DF91CF910F91EF90DF90C8
:101B0000CF90BF90AF909F908F900895EF920F93DA
:101B1000CF93DF9300D0CDB7DEB7EE24E3940CE291
:101B20009E012F5F3F4F47EC50E06EEB70E00E944C
:101B3000520D882311F0898101C080E00F900F9031
:101B4000DF91CF910F91EF900895CF92DF92EF92B6
:101B50000F93CF93DF9300D0CDB7DEB76C0124EFA6
:101B600031E04BEB50E061EB70E00E94770C8111AB
:101B700003C08FEF9FEF10C0E12C0CE29E012F5F9E
:101B80003F4F44EA50E06BE970E0C6010E94520DFD
:101B9000882379F389819A810F900F90DF91CF91FB
:101BA0000F91EF90DF90CF9008956F927F928F9278
:101BB0009F92AF92BF92CF92DF92EF92FF920F93DC
:101BC0001F93CF93DF93EA012CE3C22ED12CE12C9B
:101BD000F12CA70196010E9412206883CA01B90165
:101BE000A70196010E9412206983CA01B90128E168
:101BF00030E040E050E00E94122049015A016A831F
:101C0000CA01B9016C5F7F4F8F4F9F4F27E030E0D3
:101C100040E050E00E9412206F5F6B8300E010E014
:101C2000980140E054E6652E712C60E9C62EDD2453
:101C3000D394E42FF0E0EE54F84F7F0183E0E822E4
:101C4000FF24E114F10489F4CF01B3010E94FE1FC7
:101C5000892B29F08EE691E0A0E0B0E00AC0CF0128
:101C6000B6010E94FE1F892BA9F38DE691E0A0E04A
:101C7000B0E0080F191F2A1F3B1FD901C801AA276E
:101C8000BB2788169906AA06BB0610F04F5FD1CF76
:101C90004E83E114F10499F4CF0164E670E00E94F0
:101CA000FE1F892B29F08EE691E0A0E0B0E00BC08A
:101CB000CF0160E971E00E94FE1F892BA1F38DE640
:101CC00091E0A0E0B0E0081B190B2A0B3B0B801A37
:101CD000910AA20AB30ACF0164E670E00E94FE1FD7
:101CE0009C01CF0160E971E00E94FE1FEDE2F3E08C
:101CF000A0E0A13059F4E114F10451F421153105AB
:101D000011F04DE106C00097E1F302C0408101C02F
:101D10004CE150E060E070E084169506A606B70638
:101D200040F0841A950AA60AB70AAF5F3196AC3024
:101D300001F7AF5FAD8383948C82DF91CF911F91C8
:101D40000F91FF90EF90DF90CF90BF90AF909F905A
:101D50008F907F906F9008956F927F928F929F9255
:101D6000AF92BF92CF92DF92EF92FF920F931F93A9
:101D7000CF93DF93FC01C680AC2DB0E020E833E3C5
:101D800041EE51E00E9469204B015C0122EB37E0FB
:101D90006D01C4E6D0E000E911E0C901825B974023
:101DA0008C159D05DCF4C90183709927892B99F462
:101DB000C901BE010E94FE1F892B31F4C901B8017F
:101DC0000E94FE1F892B39F480E8880E81E5981E59
:101DD00081E0A81EB11C2F5F3F4FDFCF6580712CC3
:101DE0008EE4C81A88EFD80AC60164E670E00E9443
:101DF000FE1F8C01C60160E971E00E94FE1F7C019C
:101E0000C1E0D0E083E0C822DD24C615D7052CF55B
:101E1000C230D10589F4C114D10471F40115110542
:101E200019F4E114F10441F480E8880E8BE3981E64
:101E300086E2A81EB11C0FC0DE01A45DBC4FAC91B0
:101E4000B0E020E831E541E050E00E946920860ED4
:101E5000971EA81EB91E2196D8CF4181228130E05D
:101E6000A0E1BEE00E9453206B017C01242F30E0F2
:101E7000ACE3B0E00E945320C60ED71EE81EF91E48
:101E80008081C80ED11CE11CF11CA481B0E0119727
:101E900020E831E541E050E00E947420C60ED71ED4
:101EA000E81EF91EC80CD91CEA1CFB1CC701B601B0
:101EB000DF91CF911F910F91FF90EF90DF90CF9026
:101EC000BF90AF909F908F907F906F9008951092E9
:101ED000790581E0809377051092760561E082E1D3
:101EE0000E94A31D61E083E10E94A31DE9EBF0E0E5
:101EF00080818E7F808380818D7F808380E280934C
:101F0000B80085E48093BC000895413208F03FC0DA
:101F1000909179059111FCCF91E0909379052093F0
:101F200077052FEF20930C0510925105240F209375
:101F300050059093780590917805880F892B8093B0
:101F4000780580917605813041F410927605809174
:101F500078058093BB0085EC01C085EE8093BC00C2
:101F6000809179058130E1F380915105841710F457
:101F70004091510522E535E0FB01D9018A2F821BF2
:101F8000841718F48D918193F9CF842F089580E000
:101F900008950F93413208F046C090917905911150
:101FA000FCCF92E090937905009377059FEF909393
:101FB0000C051092510540935005FB0162E575E058
:101FC000DB019A2F961B941718F491919D93F9CFEA
:101FD0001092780590917805880F892B8093780569
:101FE00080917605813041F41092760580917805D4
:101FF0008093BB0085EC01C085EE8093BC0022235A
:1020000021F0809179058230E1F380910C058F3FBA
:1020100061F080910C05803251F080910C05803385
:1020200041F483E007C081E005C080E003C082E0A6
:1020300001C084E00F910895613298F420917905F0
:10204000243089F460932E05FC0180E395E0DC01E7
:102050002A2F281B261718F421912D93F9CF80E001
:10206000089581E0089582E0089585ED8093BC0095
:102070008091BC0084FDFCCF10927905089585EC19
:102080008093BC001092790508951F920F920FB6AD
:102090000F9211242F933F934F935F936F937F93EE
:1020A0008F939F93AF93BF93EF93FF938091B9006A
:1020B000887F803609F49CC068F5883209F45BC0DB
:1020C00090F4803109F454C038F4882309F4F5C041
:1020D000883009F44DC0F5C0883109F44CC0803215
:1020E00009F45DC0EEC0803409F468C048F4803360
:1020F00009F455C0883309F0E4C080930C05A8C0EA
:10210000803509F44FC0883509F45DC0883409F082
:10211000D8C0D5C0883909F4C6C0A8F4883709F4F6
:1021200067C038F4883609F463C0803709F460C0AA
:10213000C8C0883809F4B7C0803909F45FC0803856
:1021400009F0BFC05BC0803B09F485C038F4803A19
:1021500009F466C0883A09F47EC0B3C0803C09F433
:10216000A6C0883C09F4A3C0883B09F489C0A9C073
:102170008091780510C09091510580915005981775
:1021800070F5E091510581E08E0F80935105F0E0EC
:10219000EE5AFA4F80818093BB0085EC85C0809316
:1021A0000C058DC0E091510581E08E0F80935105A3
:1021B0008091BB00F0E0EE5AFA4F80839091510578
:1021C000809150056DC0E091510581E08E0F8093A4
:1021D00051058091BB00F0E0EE5AFA4F8083809168
:1021E000770581116CC081E08093760584EA60C038
:1021F00083E08093790510920D05CFCF80910D0576
:10220000803208F050C0E0910D0581E08E0F809380
:102210000D058091BB00F0E0E25FFA4F8083BDCFF7
:1022200080910D05803230F4E0910D05F0E0E25F21
:10223000FA4F10820E94351060910D0570E0E09118
:102240007205F09173058EE095E0099510920D05E9
:102250000E943F1036C084E08093790510922F05CC
:1022600010922E05E0917405F09175050995809105
:102270002E05811105C081E080932E051092300556
:10228000E0912F0581E08E0F80932F05F0E0E05D57
:10229000FA4F80818093BB0090912F0580912E058D
:1022A000981708F47ACF85E88093BC000AC085ECC3
:1022B0008093BC001092790504C010920C050E9416
:1022C0003510FF91EF91BF91AF919F918F917F91C9
:1022D0006F915F914F913F912F910F900FBE0F9093
:1022E0001F9018958091AA0590E02091AB05821B64
:1022F000910908952091AB058091AA05281750F403
:10230000E22FF0E0E455FA4F808190E02F5F2093B8
:10231000AB0508958FEF9FEF0895E091AB05809195
:10232000AA05E81730F4F0E0E455FA4F808190E018
:1023300008958FEF9FEF08950895CF92DF92EF9267
:10234000FF920F931F93CF93DF937C01CB018A0100
:1023500020918605222389F0EB016B01C40ED51E66
:10236000CC15DD0569F06991D701ED91FC910190E3
:10237000F081E02DC7010995F3CF642F0E941C1056
:10238000C801DF91CF911F910F91FF90EF90DF90E7
:10239000CF900895CF93DF931F92CDB7DEB76983B7
:1023A000209186052223D1F020918705203240F02C
:1023B00021E030E0FC013383228380E090E015C00F
:1023C00080918805E82FF0E0E757FA4F99819083D4
:1023D0008F5F809388058093870505C061E0CE01FB
:1023E00001960E941C1081E090E00F90DF91CF9148
:1023F0000895FC011382128248EE53E060E070E021
:1024000044835583668377838DE393E09183808350
:1024100008951092AB051092AA05109288051092AB
:1024200087050C94670F862F413208F040E26CEA72
:1024300075E00E94850F1092AB058093AA05089560
:1024400021E00C94131221E00C94131281E080938C
:1024500086056093A9051092880510928705089556
:102460000C9426120F93062F21E04091870569E80E
:1024700075E08091A9050E94C90F109288051092FD
:102480008705109286050F91089561E00C94321231
:102490008AE795E00C94F91120910E0630910F0611
:1024A00028173907B9F49091CC058091CD0598177C
:1024B00089F0E091CC05F0E0E253FA4F8081209161
:1024C000CC0530E02F5F3F4F2F7333272093CC058F
:1024D00090E008958FEF9FEF08951F93CF93DF93C0
:1024E000DC015C968D919C915D97009749F481E0A9
:1024F00090E013969C938E93129780E090E03BC0FF
:102500005196ED91FC91529750962C915097322F05
:1025100030951FB75E964C915E9741FB772770F917
:1025200041FD6095F8944081772311F0422B01C062
:1025300043234083EC012197F1F748E0508160FF8D
:1025400002C0522B01C053235083EC012197F1F7B5
:102550006695415099F78081772311F0832301C05C
:10256000822B80831FBF5C968D919C915D97019714
:10257000F1F781E090E0DF91CF911F9108952091D4
:102580000E0630910F062817390781F49091CC057B
:102590008091CD05981751F0E091CC05F0E0E25321
:1025A000FA4F8081992787FD909508958FEF9FEFCF
:1025B000089520910E0630910F062817390771F4FF
:1025C0008091CD052091CC0590E0805C9F4F821BCF
:1025D000910960E470E00E94FE1F089580E090E0A1
:1025E000089520910E0630910F062817390739F407
:1025F0008FB7F8941092CD051092CC058FBF089537
:10260000E0910E06F0910F06E817F90769F4A38927
:10261000B4899C918589809589238C9310920F06AB
:1026200010920E0681E0089580E00895CF93DF9325
:10263000EC018A8D9B8D892BF1F080910E06909193
:102640000F068C179D07B9F0009711F00E94001338
:102650008E8D8E7F8E8F1092CD051092CC05D093EB
:102660000F06C0930E06EB89FC8980819D89892B1A
:10267000808381E001C080E0DF91CF9108951F92B7
:102680000F920FB60F9211242F933F934F935F93A6
:102690006F937F938F939F93AF93BF93EF93FF932A
:1026A000E0910E06F0910F06309709F451C0868D27
:1026B000A685B785958581FF04C08C91892329F46F
:1026C00047C08C91892309F043C0A389B4899C91A8
:1026D0008589809589238C93868997890197F1F75D
:1026E000208D318DA685B785758558E040E0C901FC
:1026F0000197F1F7842F90E095958795482F6C917D
:10270000672309F04068515091F7868D81FD40950F
:102710008091CD0590E001968F7399272091CC058B
:10272000281749F0A091CD05B0E0A253BA4F4C93C1
:102730008093CD0503C0868D8160868F828D938DB9
:102740000197F1F7A389B4898C919589892B8C9392
:10275000FF91EF91BF91AF919F918F917F916F9179
:102760005F914F913F912F910F900FBE0F901F904F
:1027700018952DE433E0FC01318320830C94001381
:102780001F93CF93DF93EC01162F6E8D66956170CA
:1027900081E06827812F0E94A31D61E0812F0E94A4
:1027A0006A1D812F90E0FC01EE5EFE4FE491E88B04
:1027B000FC01EA5DFE4FE491F0E0EE0FFF1FEC5BE1
:1027C000FE4F859194919A8B898BDF91CF911F91C8
:1027D00008951F93CF93DF93EC01162F60E0812FB4
:1027E0000E946A1D8E8D81FD04C061E0812F0E94D0
:1027F000A31D1C87812F90E0FC01EE5EFE4FE4914B
:10280000ED87FC01EA5DFE4FE491F0E0EE0FFF1F63
:10281000E65CFE4F859194919F878E87DF91CF91E3
:102820001F910895FF920F931F93CF93DF93EC01B5
:10283000F62E522F1B821A8208EE13E020E030E0C1
:102840000C831D832E833F838DE493E099838883DB
:102850001F8A1E8A198E188E1B8E1A8E1D8E1C8E34
:102860008E8D8E7F50FB81F98E8F642FCE010E945A
:10287000C0136F2DCE01DF91CF911F910F91FF906B
:102880000C94E913CF93DF93EC019A01AB011B8EFB
:102890001A8E198E188E1F8A1E8A60E874E88EE1DF
:1028A00090E00E943420C9012430310520F0B901A4
:1028B0006350710902C061E070E07D8F6C8FEC8520
:1028C000E63108F068C0B901769567956431710505
:1028D00018F06351710902C061E070E07F8B6E8B6C
:1028E000069718F0C901059702C081E090E0998F22
:1028F000888FC901880F991F820F931F969587951E
:10290000969587958D30910510F00C9702C081E067
:1029100090E09B8F8A8F20916800E83050F091E022
:10292000EE3008F490E081E001C0880F9A95EAF754
:1029300001C084E0822B809368002C85283038F019
:102940002E3040F0263148F48CE690E008C08DE649
:1029500090E005C08BE690E002C080E090E09C8BA8
:102960008B8B283030F481E001C0880F2A95EAF77C
:102970000DC0822F90E02E3010F4089701C00E9702
:1029800091E001C0990F8A95EAF7892F8D8B8C8D84
:102990009D8D0197F1F7CE01DF91CF910C94161325
:1029A0008AE795E00C940912982F92959F702AEF70
:1029B000929F800D112408958AE795E00C940912E6
:1029C000EF92FF920F931F93CF93DF9300D0CDB779
:1029D000DEB7062F122F68E670E08AE795E049839C
:1029E0005A830E943012602F8AE795E00E94CA1134
:1029F0004981042FE42E5A81F52E8E2D801B8117DC
:102A000040F4F70161917F018AE795E00E94CA11C5
:102A1000F4CF8AE795E00F900F90DF91CF911F914F
:102A20000F91FF90EF900C944512CF93DF931F927C
:102A3000CDB7DEB7498321E0AE014F5F5F4F0E9403
:102A4000E0140F90DF91CF910895CF92DF92EF9233
:102A5000FF920F931F93CF93DF931F92CDB7DEB7F3
:102A60006C01562F342FEAE0842F6E2F0E94F21F44
:102A7000482F440F480F440F430F822F0E94F21F2C
:102A8000382F330F380F330F320F802F0E94F21F71
:102A9000182F110F180F110F100F8E2D0E94F21FFB
:102AA000082F000F080F000F0E0D50FD406851FD5C
:102AB000306852FD106854FD106453FD006857FDE6
:102AC00009C067E0C60139830E94151598E0F92E08
:102AD000398102C08BE0F82E432F6F2DC6010E9472
:102AE000151561E06F0D412FC6010E94151562E0BA
:102AF0006F0D402FC6010F90DF91CF911F910F9165
:102B0000FF90EF90DF90CF900C9415151F93CF930B
:102B1000DF93EC0168E670E08AE795E00E943012EE
:102B200060E08AE795E00E94CA118AE795E00E947A
:102B30004512182F81113BC047E050E068E670E075
:102B40008AE795E00E9423128AE795E00E947A11B5
:102B50008F770E94D41488838AE795E00E947A11C7
:102B60000E94D41489838AE795E00E947A118F7BB2
:102B70000E94D4148A838AE795E00E947A118B839D
:102B80008AE795E00E947A110E94D4148C838AE728
:102B900095E00E947A118F770E94D4148D838AE782
:102BA00095E00E947A110E94D414825E8E83812F58
:102BB000DF91CF911F910895CF93DF93CDB7DEB70B
:102BC00027970FB6F894DEBF0FBECDBFCE0101969A
:102BD0000E948615811105C0CE0101960E94AC0E9F
:102BE00003C060E070E0CB0127960FB6F894DEBF1B
:102BF0000FBECDBFDF91CF910895EF92FF920F935B
:102C00001F93CF93DF93C62F042FF52E122F68E664
:102C100070E08AE795E00E9430126C2F8AE795E019
:102C20000E94CA118AE795E00E944512811114C0E2
:102C3000412F68E68AE795E00E942012E02EC02F1F
:102C4000DF2D8C2F8E19811730F48AE795E00E94D2
:102C50007A118993F6CF80E0DF91CF911F910F9188
:102C6000FF90EF900895CF93DF931F92CDB7DEB71B
:102C700021E0AE014F5F5F4F0E94FD1589810F90EB
:102C8000DF91CF910895FF920F931F93CF93DF931E
:102C90008C01EB0168E670E08AE795E00E94301253
:102CA00060E08AE795E00E94CA1128813AE0F32E9D
:102CB000822F6F2D0E94F21F682F660F680F660F1C
:102CC000620F8AE795E00E94CA112981822F6F2D39
:102CD0000E94F21F682F660F680F660F620F8AE767
:102CE00095E00E94CA112A81822F6F2D0E94F21F47
:102CF000682F660F680F660F620F8AE795E00E94E3
:102D0000CA116B818AE795E00E94CA112C81822F3B
:102D10006F2D0E94F21F682F660F680F660F620FFB
:102D20008AE795E00E94CA112D81822F6F2D0E94A3
:102D3000F21F682F660F680F660F620F8AE795E033
:102D40000E94CA112E812E51822F6F2D0E94F21FD8
:102D5000682F660F680F660F620F8AE795E00E9482
:102D6000CA118AE795E00E944512C82F6FE0C8019A
:102D70000E943316482F4F776FE0C8010E94151547
:102D80008C2FDF91CF911F910F91FF900895EF92BB
:102D9000FF921F93CF93DF931F92CDB7DEB77C01D5
:102DA000162F6EE049830E943316115021E030E067
:102DB000012E01C0220F0A94EAF74981442319F039
:102DC000482F422B03C0422F409548236EE0C70195
:102DD0000F90DF91CF911F91FF90EF900C941515FC
:102DE0001F93CF93DF93EC01162F6FE00E943316F1
:102DF000115041E050E0012E01C0440F0A94EAF75F
:102E0000982F942341F0409548236FE0CE010E9413
:102E1000151581E001C080E0DF91CF911F910895E9
:102E20000F931F93CF93DF938C0162E10E943316BF
:102E3000C82F61E1C8010E943316D82FCE0166E089
:102E4000959587956A95E1F7DF91CF911F910F9145
:102E50000895FC01818D228D90E0805C9F4F821B44
:102E600091098F7399270895FC01918D828D981790
:102E700031F0828DE80FF11D858D90E008958FEF80
:102E80009FEF0895FC01918D828D981761F0828DDE
:102E9000DF01A80FB11D5D968C91928D9F5F9F738E
:102EA000928F90E008958FEF9FEF089580EC98E166
:102EB000892B49F080E090E0892B29F00E94C0180E
:102EC00081110C9400000895FC01848DDF01A80F8E
:102ED000B11DA35ABF4F2C91848D90E001968F7342
:102EE0009927848FA689B7892C93A089B1898C9161
:102EF00080648C93938D848D981306C00288F38927
:102F0000E02D80818F7D80830895CF93DF93EC0146
:102F1000888D8823C9F0EA89FB89808185FD05C0F9
:102F2000A889B9898C9186FD0FC00FB607FCF5CF33
:102F3000808185FFF2CFA889B9898C9185FFEDCF7B
:102F4000CE010E946417E7CFDF91CF910895CF9211
:102F5000DF92FF920F931F93CF93DF931F92CDB712
:102F6000DEB76C01DC015B969C915B975C968C9163
:102F70005C97981307C05096ED91FC915197808112
:102F800085FD32C0F601038D10E00F5F1F4F0F73F8
:102F90001127F02EF601848DF81211C00FB607FC30
:102FA000F9CFD6015096ED91FC915197808185FF24
:102FB000F1CFC60169830E9464176981EBCF838DCD
:102FC000E80FF11DE35AFF4F6083D6015B960C9327
:102FD0005B975296ED91FC9153978081806280833C
:102FE00081E058968C930DC0D6015696ED91FC91D8
:102FF000579760835096ED91FC9151978081806442
:10300000808381E090E00F90DF91CF911F910F912D
:10301000FF90DF90CF900895BF92CF92DF92EF9212
:10302000FF92CF93DF93EC016A017B01B22E60E83F
:1030300074E88EE190E0A70196010E9412202150D1
:103040003109410951095695479537952795E889E2
:10305000F98982E08083211580E1380798F0E889BA
:10306000F989108260E472E48FE090E0A701960194
:103070000E94122021503109410951095695479566
:1030800037952795EC85FD853083EE85FF85208378
:10309000188EEC89FD89B082EA89FB898081806184
:1030A0008083EA89FB89808188608083EA89FB8943
:1030B000808180688083EA89FB8980818F7D80831D
:1030C000DF91CF91FF90EF90DF90CF90BF90089568
:1030D0001F920F920FB60F9211242F938F939F93ED
:1030E000EF93FF93E0912006F09121068081E0911B
:1030F0002606F091270682FD12C090818091290654
:103100008F5F8F7320912A06821751F0E091290674
:10311000F0E0E05FF94F958F8093290601C0808130
:10312000FF91EF919F918F912F910F900FBE0F9074
:103130001F9018951F920F920FB60F9211242F9384
:103140003F934F935F936F937F938F939F93AF932F
:10315000BF93EF93FF9380E196E00E946417FF9185
:10316000EF91BF91AF919F918F917F916F915F91FF
:103170004F913F912F910F900FBE0F901F90189578
:1031800080E196E00E94291721E0892B09F420E0D4
:10319000822F0895109213061092120688EE93E083
:1031A000A0E0B0E08093140690931506A093160655
:1031B000B09317068DE593E0909311068093100667
:1031C00085EC90E090931D0680931C0684EC90E0C3
:1031D00090931F0680931E0680EC90E0909321064A
:1031E0008093200681EC90E0909323068093220642
:1031F00082EC90E0909325068093240686EC90E084
:1032000090932706809326061092290610922A068C
:1032100010922B0610922C060895CF92DF92EF9217
:10322000FF920F931F93CF93DF936C017A01EB0111
:10323000E60EF71E00E010E0CE15DF0561F06991A3
:10324000D601ED91FC910190F081E02DC601099528
:10325000080F191FF1CFC801DF91CF911F910F9176
:10326000FF90EF90DF90CF9008956115710581F088
:10327000DB010D900020E9F7AD0141505109461BDB
:10328000570BDC01ED91FC910280F381E02D099454
:1032900080E090E00895EF92FF920F931F93CF93F9
:1032A000DF938C01FB01C0E0D0E064917F018FEFE0
:1032B000E81AF80A662361F0D801ED91FC910190BB
:1032C000F081E02DC8010995C80FD91FF701EDCF96
:1032D000CE01DF91CF911F910F91FF90EF90089554
:1032E0000C943519DC01ED91FC910190F081E02DF9
:1032F00009940F931F93CF93DF93EC016DE00E942D
:1033000072198C016AE0CE010E947219800F911F20
:10331000DF91CF911F910F9108950F931F93CF933A
:10332000DF93EC010E944B198C01CE010E947919A8
:10333000800F911FDF91CF911F910F9108950F93EF
:103340001F93CF93DF93EC010E9435198C01CE01BE
:103350000E947919800F911FDF91CF911F910F91DA
:1033600008958F929F92AF92BF92CF92DF92EF9289
:10337000FF920F931F93CF93DF93CDB7DEB7A19743
:103380000FB6F894DEBF0FBECDBF7C01C42EE52F73
:10339000CB01D22E19A221E02D1510F02AE0D22E59
:1033A0008E010F5D1F4F8D2C912CA12CB12C6C2DFB
:1033B0007E2FA50194010E9412208C2DD29E80198F
:1033C0001124015011098A3014F4805D01C0895C18
:1033D000F8018083211531054105510521F0C22EE8
:1033E000E32FCA01E4CFB801C7010E943519A196A5
:1033F0000FB6F894DEBF0FBECDBFDF91CF911F9106
:103400000F91FF90EF90DF90CF90BF90AF909F9083
:103410008F900895CF92DF92EF92FF920F931F93B8
:10342000CF93DF93EC016A017B012115310579F41B
:10343000E881F9810190F081E02D642FDF91CF9137
:103440001F910F91FF90EF90DF90CF9009942A3059
:103450003105E9F477FF1AC06DE20E9472198C0100
:1034600044275527BA014C195D096E097F092AE0E6
:10347000CE010E94B119800F911FDF91CF911F9152
:103480000F91FF90EF90DF90CF9008952AE0B70161
:10349000A601CE01DF91CF911F910F91FF90EF9088
:1034A000DF90CF900C94B1190F931F93CF93DF93BC
:1034B000EC019A01AB01662757FD6095762F0E94BB
:1034C0000A1A8C01CE010E947919800F911FDF9199
:1034D000CF911F910F9108952115310541F4DC0121
:1034E000ED91FC910190F081E02D642F09940C94F2
:1034F000B1199A01462F50E060E070E00C946C1A0C
:103500000F931F93CF93DF93EC019A01462F50E066
:1035100060E070E00E946C1A8C01CE010E94791963
:10352000800F911FDF91CF911F910F9108950F93FD
:103530001F93CF93DF93EC019A01AB0160E070E041
:103540000E946C1A8C01CE010E947919800F911F84
:10355000DF91CF911F910F9108950F931F93CF93F8
:10356000DF93EC010E946C1A8C01CE010E94791944
:10357000800F911FDF91CF911F910F91089582309D
:10358000E8F4E82FF0E0EE0FFF1FE355F94F7183E9
:103590006083813041F0809169008C7F842B80931F
:1035A0006900E89A089580916900440F551F440FFF
:1035B000551F837F842B80936900E99A0895823098
:1035C00068F4813011F0E89801C0E998E82FF0E044
:1035D000EE0FFF1FE355F94F1182108208951F92DD
:1035E0000F920FB60F9211242F933F934F935F9337
:1035F0006F937F938F939F93AF93BF93EF93FF93BB
:103600008091AD069091AE06892B29F0E091AD0630
:10361000F091AE060995FF91EF91BF91AF919F9107
:103620008F917F916F915F914F913F912F910F906B
:103630000FBE0F901F9018951F920F920FB60F920A
:1036400011242F933F934F935F936F937F938F93A7
:103650009F93AF93BF93EF93FF938091AF069091A9
:10366000B006892B29F0E091AF06F091B0060995DC
:10367000FF91EF91BF91AF919F918F917F916F914A
:103680005F914F913F912F910F900FBE0F901F9020
:103690001895FC01808191810C942E21CF93DF93AA
:1036A000EC0188819981009711F00E942E211982E6
:1036B00018821D821C821B821A82DF91CF9108958D
:1036C0000F931F93CF93DF93EC018B016F5F7F4FBD
:1036D000888199810E94BD21009731F09983888368
:1036E0001B830A8381E001C080E0DF91CF911F91AD
:1036F0000F910895CF93DF93EC0188819981892BF5
:1037000029F08A819B818617970760F4CE010E9479
:10371000601B882341F08C819D81892B19F4E881FD
:10372000F981108281E0DF91CF910895EF92FF92AD
:103730000F931F93CF93DF93EC017B018A01BA01B2
:103740000E947A1B811104C0CE010E944E1B07C04B
:103750001D830C83B701888199810E941523CE01B6
:10376000DF91CF911F910F91FF90EF900895FC0191
:1037700011821082138212821582148261157105E2
:1037800059F0FB0101900020E9F7AF0141505109C8
:10379000461B570B0C94961B0895CF93DF93EC01B7
:1037A0006115710561F0FB0101900020E9F7AF019F
:1037B00041505109461B570B0E94961B02C00E94A4
:1037C0004E1BCE01DF91CF910895BF92CF92DF9231
:1037D000EF92FF920F931F93CF93DF936C017B01C6
:1037E000EA0189012417350720F48D2FE901042F00
:1037F000182F61E971E0C6010E94B71BD70114962A
:103800008D919C911597C817D907C8F48017910717
:1038100008F48C01D701ED91FC911197E00FF11F95
:10382000B08010826D917C916C0F7D1FC6010E944B
:10383000CD1BD701ED91FC91E00FF11FB082C601C5
:10384000DF91CF911F910F91FF90EF90DF90CF907C
:10385000BF900895FC0180819181009711F00C9434
:10386000A52260E070E0CB01089508950E94E61C57
:103870000E94351C0E94B806C6E5D7E10E942C08BC
:103880002097E1F30E945617F9CF1F920F920FB6BF
:103890000F9211242F933F938F939F93AF93BF93D6
:1038A0008091B2069091B306A091B406B091B5068E
:1038B0003091B10626E0230F2D3720F40296A11D8A
:1038C000B11D05C029E8230F0396A11DB11D20934A
:1038D000B1068093B2069093B306A093B406B0935A
:1038E000B5068091B6069091B706A091B806B09142
:1038F000B9060196A11DB11D8093B6069093B70637
:10390000A093B806B093B906BF91AF919F918F91E4
:103910003F912F910F900FBE0F901F9018952FB7CA
:10392000F8946091B2067091B3068091B4069091BC
:10393000B5062FBF08953FB7F8948091B6069091D1
:10394000B706A091B806B091B90626B5A89B05C0E8
:103950002F3F19F00196A11DB11D3FBF6627782F9B
:10396000892F9A2F620F711D811D911D43E0660FF3
:10397000771F881F991F4A95D1F70895CF92DF923C
:10398000EF92FF92CF93DF936B017C010E949B1C0F
:10399000EB01C114D104E104F10489F00E94021E7C
:1039A0000E949B1C6C1B7D0B683E734090F381E072
:1039B000C81AD108E108F108C851DC4FEACFDF91FD
:1039C000CF91FF90EF90DF90CF900895789484B5D9
:1039D000826084BD84B5816084BD85B5826085BD0B
:1039E00085B5816085BDEEE6F0E0808181608083F1
:1039F000E1E8F0E0108280818260808380818160D4
:103A00008083E0E8F0E0808181608083E1EBF0E09A
:103A1000808184608083E0EBF0E08081816080833E
:103A2000EAE7F0E080818460808380818260808327
:103A30008081816080838081806880831092C10052
:103A400008958093130108958E3008F08E5087708A
:103A50002091130190E4299F90011124822B8093DF
:103A60007C0080917A00806480937A0080917A0053
:103A700086FDFCCF809178002091790090E0922B18
:103A80000895833081F028F4813099F08230A1F0DC
:103A900008958730A9F08830B9F08430D1F480914E
:103AA00080008F7D03C0809180008F77809380009D
:103AB000089584B58F7702C084B58F7D84BD089545
:103AC0008091B0008F7703C08091B0008F7D80938C
:103AD000B0000895CF93DF9390E0FC01EE5EFE4FBF
:103AE0002491FC01EA5DFE4F8491882349F190E026
:103AF000880F991FFC01E25BFE4FA591B4918C5B8E
:103B00009E4FFC01C591D4919FB7611108C0F894F4
:103B10008C91209582238C93888182230AC0623005
:103B200051F4F8948C91322F309583238C938881B3
:103B3000822B888304C0F8948C91822B8C939FBF36
:103B4000DF91CF9108950F931F93CF93DF931F922F
:103B5000CDB7DEB7282F30E0F901E250FF4F849156
:103B6000F901EE5EFE4F1491F901EA5DFE4F0491FA
:103B70000023C9F0882321F069830E94411D6981D7
:103B8000E02FF0E0EE0FFF1FEC5BFE4FA591B4912C
:103B90009FB7F8948C91611103C01095812301C0E7
:103BA000812B8C939FBF0F90DF91CF911F910F912D
:103BB0000895CF93DF93282F30E0F901E250FF4FB3
:103BC0008491F901EE5EFE4FD491F901EA5DFE4F5A
:103BD000C491CC2391F081110E94411DEC2FF0E0A3
:103BE000EE0FFF1FE65CFE4FA591B4912C912D23A3
:103BF00081E090E021F480E002C080E090E0DF917D
:103C0000CF91089508955058BB27AA270ED04DC1D3
:103C10003ED130F043D120F031F49F3F11F41EF437
:103C200033C10EF4E095E7FB29C1E92F4FD180F3B2
:103C3000BA17620773078407950718F071F49EF5A9
:103C400067C10EF4E0950B2EBA2FA02D0B01B90120
:103C500090010C01CA01A0011124FF27591B99F002
:103C6000593F50F4503E68F11A16F040A22F232F0E
:103C7000342F4427585FF3CF469537952795A7955E
:103C8000F0405395C9F77EF41F16BA0B620B730B05
:103C9000840BBAF09150A1F0FF0FBB1F661F771F76
:103CA000881FC2F70EC0BA0F621F731F841F48F42B
:103CB000879577956795B795F7959E3F08F0B3CFB1
:103CC0009395880F08F09927EE0F9795879508959B
:103CD0000CD0EBC0E3D040F0DAD030F021F45F3FFD
:103CE00019F0CCC0511115C1CFC0F0D098F3992371
:103CF000C9F35523B1F3951B550BBB27AA276217B0
:103D00007307840738F09F5F5F4F220F331F441FF4
:103D1000AA1FA9F333D00E2E3AF0E0E830D091502C
:103D20005040E695001CCAF729D0FE2F27D0660F19
:103D3000771F881FBB1F261737074807AB07B0E858
:103D400009F0BB0B802DBF01FF2793585F4F2AF06E
:103D50009E3F510568F092C0DCC05F3FECF3983E97
:103D6000DCF3869577956795B795F7959F5FC9F7CB
:103D7000880F911D9695879597F90895E1E0660F54
:103D8000771F881FBB1F621773078407BA0720F0CD
:103D9000621B730B840BBA0BEE1F88F7E095089536
:103DA00004D06894B111B5C0089598D088F09F5799
:103DB00090F0B92F9927B751A0F0D1F0660F771F77
:103DC000881F991F1AF0BA95C9F712C0B13081F057
:103DD0009FD0B1E008959CC0672F782F8827B85FE7
:103DE00039F0B93FCCF3869577956795B395D9F7B8
:103DF0003EF490958095709561957F4F8F4F9F4FC2
:103E00000895E89409C097FB3EF4909580957095CD
:103E100061957F4F8F4F9F4F9923A9F0F92F96E916
:103E2000BB279395F695879577956795B795F1118B
:103E3000F8CFFAF4BB0F11F460FF1BC06F5F7F4F28
:103E40008F4F9F4F16C0882311F096E911C077233A
:103E500021F09EE8872F762F05C0662371F096E843
:103E6000862F70E060E02AF09A95660F771F881F12
:103E7000DAF7880F9695879597F9089597F99F67D0
:103E800080E870E060E008959FEF80EC08950024E2
:103E90000A941616170618060906089500240A94AF
:103EA00012161306140605060895092E0394000C35
:103EB00011F4882352F0BB0F40F4BF2B11F460FFC4
:103EC00004C06F5F7F4F8F4F9F4F089557FD9058ED
:103ED000440F551F59F05F3F71F04795880F97FBCE
:103EE000991F61F09F3F79F0879508951216130688
:103EF0001406551FF2CF4695F1DF08C016161706B7
:103F00001806991FF1CF86957105610508940895EB
:103F1000E894BB2766277727CB0197F908950BD044
:103F2000C4CFB5DF28F0BADF18F0952309F0A6CF8B
:103F3000ABCF1124EECFCADFA0F3959FD1F3950F3D
:103F400050E0551F629FF001729FBB27F00DB11D1D
:103F5000639FAA27F00DB11DAA1F649F6627B00DAD
:103F6000A11D661F829F2227B00DA11D621F739F96
:103F7000B00DA11D621F839FA00D611D221F749FA4
:103F80003327A00D611D231F849F600D211D822FEB
:103F9000762F6A2F11249F5750408AF0E1F0882332
:103FA0004AF0EE0FFF1FBB1F661F771F881F91503F
:103FB0005040A9F79E3F510570F060CFAACF5F3FF8
:103FC000ECF3983EDCF3869577956795B795F79572
:103FD000E7959F5FC1F7FE2B880F911D96958795FA
:103FE00097F90895991B79E004C0991F961708F076
:103FF000961B881F7A95C9F78095089597FB072E21
:1040000016F4009407D077FD09D00E947C2007FCAD
:1040100005D03EF4909581959F4F089570956195D8
:104020007F4F0895A1E21A2EAA1BBB1BFD010DC0F4
:10403000AA1FBB1FEE1FFF1FA217B307E407F50758
:1040400020F0A21BB30BE40BF50B661F771F881F34
:10405000991F1A9469F760957095809590959B01CA
:10406000AC01BD01CF010895052E97FB1EF400940D
:104070000E944B2057FD07D00E94122007FC03D05E
:104080004EF40C944B2050954095309521953F4F20
:104090004F4F5F4F089590958095709561957F4F34
:1040A0008F4F9F4F0895A29FB001B39FC001A39F60
:1040B000700D811D1124911DB29F700D811D112461
:1040C000911D08950E945320B7FF0895821B930B02
:1040D00008950E945320A59F900DB49F900DA49F1A
:1040E000800D911D11240895B7FF0C9469200E9442
:1040F0006920821B930B0895AA1BBB1B51E107C0CB
:10410000AA1FBB1FA617B70710F0A61BB70B881F67
:10411000991F5A95A9F780959095BC01CD010895F6
:10412000EE0FFF1F0590F491E02D0994CF93DF93DC
:104130008230910510F482E090E0E091BC06F091AD
:10414000BD0620E030E0A0E0B0E0309739F14081DA
:10415000518148175907B8F04817590771F48281FF
:104160009381109729F013969C938E9312972CC0ED
:104170009093BD068093BC0627C02115310531F010
:104180004217530718F0A901DB0101C0EF019A01A2
:10419000BD01DF010280F381E02DD7CF211531056C
:1041A000F9F0281B390B2430310580F48A819B817A
:1041B0006115710521F0FB019383828304C0909304
:1041C000BD068093BC06FE01329644C0FE01E20F9C
:1041D000F31F8193919322503109398328833AC088
:1041E0002091BA063091BB06232B41F420910201A5
:1041F000309103013093BB062093BA062091000151
:10420000309101012115310541F42DB73EB74091A0
:10421000040150910501241B350BE091BA06F09181
:10422000BB06E217F307A0F42E1B3F0B2817390734
:1042300078F0AC014E5F5F4F2417350748F04E0F02
:104240005F1F5093BB064093BA068193919302C0BF
:10425000E0E0F0E0CF01DF91CF910895CF93DF93BD
:10426000009709F487C0FC01329713821282C09133
:10427000BC06D091BD06209781F420813181280FA2
:10428000391F8091BA069091BB068217930779F582
:10429000F093BB06E093BA066DC0DE0120E030E08B
:1042A000AE17BF0750F412964D915C9113979D0184
:1042B0004115510509F1DA01F3CFB383A28340819F
:1042C0005181840F951F8A179B0771F48D919C91E2
:1042D0001197840F951F02969183808312968D917A
:1042E0009C911397938382832115310529F4F093D0
:1042F000BD06E093BC063EC0D9011396FC93EE9335
:1043000012974D915D91A40FB51FEA17FB0779F441
:1043100080819181840F951F0296D90111969C93FB
:104320008E938281938113969C938E931297E0E0F3
:10433000F0E08A819B81009719F0FE01EC01F9CF32
:10434000CE01029628813981820F931F2091BA06EF
:104350003091BB062817390769F4309729F4109279
:10436000BD061092BC0602C013821282D093BB0617
:10437000C093BA06DF91CF910895A0E0B0E0E3ECDE
:10438000F1E20C940E26EC01CB01209719F40E9467
:104390009620B8C0FE01E60FF71F9E01225031099A
:1043A000E217F30708F4ACC0D9010D911C911197E5
:1043B00006171707B8F00530110508F49FC0A801CB
:1043C000445051094617570708F498C00250110984
:1043D000061B170B019311936D937C93CF010E94E1
:1043E0002E218CC05B01A01AB10A4E01800E911ED5
:1043F000A091BC06B091BD06612C712C60E070E00C
:10440000109709F449C0A815B905C9F5ED90FC90BD
:104410001197670142E0C40ED11CCA14DB0478F185
:1044200047018A189B08640142E0C40ED11C129611
:10443000BC9012971396AC91B5E0CB16D10440F026
:10444000B282A38391828082D9018D939C9309C00B
:104450000E5F1F4F0E0D1F1DF90111830083EB2D01
:10446000FA2F6115710531F0DB011396FC93EE9381
:10447000129744C0F093BD06E093BC063FC06D9117
:104480007C9111976616770608F43B01BD011296E0
:104490000D90BC91A02DB4CF6091BA067091BB066F
:1044A00068157905E9F468167906D0F440910001A1
:1044B000509101014115510541F44DB75EB760912E
:1044C000040170910501461B570BE417F507C0F472
:1044D000F093BB06E093BA06F901918380830EC086
:1044E0000E9496207C01009759F0A801BE010E940D
:1044F000F822CE010E942E21C70104C0CE0102C0C5
:1045000080E090E0CDB7DEB7EEE00C942A26FC0107
:1045100088279927E89421912032E9F3293010F077
:104520002E30C8F32B3241F02D3239F4689404C098
:104530000E946823820F911D219120532A30C0F3DD
:104540001EF4909581959F4F08951F93FC01992724
:104550008827BC01E89411911032E9F3193010F06A
:104560001E30C8F31B3251F01D3249F4689406C066
:104570000E945323610F711D811D911D11911053D4
:104580001A30B0F33EF490958095709561957F4F09
:104590008F4F9F4F1F910895FB01DC018D91059076
:1045A00080190110D9F3990B0895FC0105900020A2
:1045B000E9F7809590958E0F9F1F0895FB01559107
:1045C0005523A9F0BF01DC014D9145174111E1F7D9
:1045D00059F4CD010590002049F04D91401541114D
:1045E000C9F3FB014111EFCF81E090E001970895FD
:1045F000FB01DC0102C001900D9241505040D8F700
:104600000895FC018191861721F08823D9F7992715
:1046100008953197CF010895FB01DC018D91019040
:1046200080190110D9F3990B0895FB01DC01019069
:104630000D920020E1F70895FB01DC01415050404C
:1046400030F08D910190801919F40020B9F7881B82
:10465000990B0895FB01DC014150504048F0019056
:104660000D920020C9F701C01D9241505040E0F763
:104670000895FB0151915523A9F0BF01DC014D9133
:1046800045174111E1F759F4CD010190002049F09F
:104690004D9140154111C9F3FB014111EFCF81E06C
:1046A00090E001970895592F482F372F262F660F36
:1046B000771F881F991F660F771F881F991F620F2A
:1046C000731F841F951F660F771F881F991F0895FA
:1046D0007AE0979F902D879F802D910D112408954A
:1046E000AEE0B0E0E6E7F3E20C9418260D891E89EF
:1046F00086E08C831A8309838FEF9FE79E838D83E7
:10470000AE01475E5F4F6F89788DCE0101960E94A2
:104710009223EF81F885E00FF11F10822E96E4E0DE
:104720000C943426ACE0B0E0E8E9F3E20C940A26FD
:104730007C016B018A01FC0117821682838181FF53
:10474000BDC1CE0101964C01F7019381F60193FDA5
:10475000859193FF81916F01882309F4ABC1853264
:1047600039F493FD859193FF81916F01853229F48E
:10477000B70190E00E947A25E7CF512C312C20E040
:104780002032A0F48B3269F030F4803259F0833259
:1047900069F420612CC08D3239F0803339F4216006
:1047A00026C02260246023C0286021C027FD27C0C6
:1047B00030ED380F3A3078F426FF06C0FAE05F9EFD
:1047C000300D1124532E13C08AE0389E300D112471
:1047D000332E20620CC08E3221F426FD6BC1206482
:1047E00006C08C3611F4206802C0883641F4F60108
:1047F00093FD859193FF81916F018111C1CF982F16
:104800009F7D9554933028F40C5F1F4FFFE3F9838D
:104810000DC0833631F0833771F0833509F05BC00A
:1048200022C0F801808189830E5F1F4F4424439486
:10483000512C540115C03801F2E06F0E711CF801C3
:10484000A080B18026FF03C0652D70E002C06FEF2D
:104850007FEFC5012C870E946F252C0183012C85D9
:104860002F77222E17C03801F2E06F0E711CF8016D
:10487000A080B18026FF03C0652D70E002C06FEFFD
:104880007FEFC5012C870E9464252C012C852068B0
:10489000222E830123FC1BC0832D90E0481659066D
:1048A000B0F4B70180E290E00E947A253A94F4CF08
:1048B000F50127FC859127FE81915F01B70190E00A
:1048C0000E947A2531103A94F1E04F1A51084114B0
:1048D000510471F7E5C0843611F0893639F5F801D5
:1048E00027FF07C060817181828193810C5F1F4F18
:1048F00008C060817181882777FD8095982F0E5FB1
:104900001F4F2F76B22E97FF09C090958095709516
:1049100061957F4F8F4F9F4F2068B22E2AE030E085
:10492000A4010E94AC25A82EA81844C0853729F4FC
:104930002F7EB22E2AE030E025C0F22FF97FBF2E65
:104940008F36C1F018F4883579F0B4C0803719F08B
:10495000883721F0AFC02F2F2061B22EB4FE0DC0DA
:104960008B2D8460B82E09C024FF0AC09F2F96604B
:10497000B92E06C028E030E005C020E130E002C0DA
:1049800020E132E0F801B7FE07C0608171818281C9
:1049900093810C5F1F4F06C06081718180E090E0C1
:1049A0000E5F1F4FA4010E94AC25A82EA818FB2D56
:1049B000FF77BF2EB6FE0BC02B2D2E7FA51450F413
:1049C000B4FE0AC0B2FC08C02B2D2E7E05C07A2C86
:1049D0002B2D03C07A2C01C0752C24FF0DC0FE01C5
:1049E000EA0DF11D8081803311F4297E09C022FF78
:1049F00006C07394739404C0822F867809F0739470
:104A000023FD13C020FF06C05A2C731418F4530C56
:104A10005718732C731468F4B70180E290E02C8768
:104A20000E947A2573942C85F5CF731410F43718EF
:104A300001C0312C24FF12C0B70180E390E02C8725
:104A40000E947A252C8522FF17C021FF03C088E52C
:104A500090E002C088E790E0B7010CC0822F867812
:104A600059F021FD02C080E201C08BE227FD8DE2FA
:104A7000B70190E00E947A25A51438F4B70180E3CD
:104A800090E00E947A255A94F7CFAA94F401EA0D97
:104A9000F11D8081B70190E00E947A25A110F5CF29
:104AA000332009F451CEB70180E290E00E947A25CC
:104AB0003A94F6CFF7018681978102C08FEF9FEF7E
:104AC0002C96E2E10C942626FC0105906150704082
:104AD0000110D8F7809590958E0F9F1F0895FC01C7
:104AE0006150704001900110D8F7809590958E0F1D
:104AF0009F1F08950F931F93CF93DF93182F092FB4
:104B0000EB018B8181FD03C08FEF9FEF20C082FFFF
:104B100010C04E815F812C813D81421753077CF488
:104B2000E881F9819F012F5F3F4F398328831083EC
:104B300006C0E885F985812F0995892B29F72E81F3
:104B40003F812F5F3F4F3F832E83812F902FDF9137
:104B5000CF911F910F910895FA01AA27283051F1A2
:104B6000203181F1E8946F936E7F6E5F7F4F8F4F9E
:104B70009F4FAF4FB1E03ED0B4E03CD0670F781FFD
:104B8000891F9A1FA11D680F791F8A1F911DA11DE2
:104B90006A0F711D811D911DA11D20D009F468941B
:104BA0003F912AE0269F11243019305D3193DEF6C3
:104BB000CF010895462F4770405D4193B3E00FD079
:104BC000C9F7F6CF462F4F70405D4A3318F0495D64
:104BD00031FD4052419302D0A9F7EACFB4E0A69547
:104BE0009795879577956795BA95C9F70097610569
:104BF000710508959B01AC010A2E069457954795BF
:104C000037952795BA95C9F7620F731F841F951FB3
:104C1000A01D08952F923F924F925F926F927F92C4
:104C20008F929F92AF92BF92CF92DF92EF92FF92BC
:104C30000F931F93CF93DF93CDB7DEB7CA1BDB0B68
:104C40000FB6F894DEBF0FBECDBF09942A8839880D
:104C500048885F846E847D848C849B84AA84B98414
:104C6000C884DF80EE80FD800C811B81AA81B98120
:104C7000CE0FD11D0FB6F894DEBF0FBECDBFED0134
:104C8000089511E0C0E6D1E004C0FE010E94922028
:0C4C90002296C236D107C9F7F894FFCF76
:104C9C000000BE06800037303634313435353335BC
:104CAC0000983A0141542B4350494E3D00000000FE
:104CBC00000041542B434D47533D2200000000009F
:104CCC0000000000000000000000000000000000D8
:104CDC0041542B434D47573D22000000000000007B
:104CEC000000000000000000000000000000526501
:104CFC0070436E743A2000253035753A25303130CA
:104D0C006C753A253034643A253034753A25303494
:104D1C00753A253034753A253034753A253034756A
:104D2C000A006D616E6167656420746F206765743D
:104D3C0020686572650041542B434D47443D312C2E
:104D4C00340041542B434D53533D30300053796E56
:104D5C006354696D6520746D2E596561723A20003B
:104D6C0053686F7274596561723A200074656D7086
:104D7C005F5254435F435F78343A200074656D7022
:104D8C005F5254435F463A200053686F7274205947
:104D9C006561723A20004461746554696D654C6FAD
:104DAC006E673A2000253035753A253031306C75F8
:104DBC003A253034753A253034753A253034753A05
:104DCC00253034750041542B434D47463D3100414D
:104DDC00542B43504D533D22534D222C22534D22E4
:104DEC000041542B434C54533D3100415426570041
:104DFC003A00476F74204865726500456E746572A1
:104E0C006564204C6F6F70005254435F416C61724B
:104E1C006D3A20005365745F496E74657276616CEF
:104E2C005F416C61726D3A2000546865206E657844
:104E3C007420616C61726D2069733A2000092D2D0C
:104E4C002D3E2000093C2D2D2D200041542B434399
:104E5C0049440041542B47534E002B43434C4B3A8F
:104E6C0020002C004F4B005E5A002B434D47530043
:104E7C0041542B434D47443D303030002B434D477C
:104E8C00570041542B434D47443D312C3000537453
:104E9C00617475733A20004C656E3A20002C3130E9
:104EAC0030303000444F574E4C4F4144000000000E
:104EBC0000D5090D19C909E109ED09F9091F1C1FD4
:104ECC001E1F1E1F1F1E1F1E1F00000000CA119D4B
:104EDC001172117A118D119C11000000006D120DD0
:104EEC0019D9124C12BF12F11200000000A7170DB5
:0A4EFC001929174217341785170013
:00000001FF
