:100000000C94B9000C94BE1B0C94EB1B0C940E14B6
:100010000C940E140C940E140C94E1000C94E1005A
:100020000C94E1000C94E1000C94E1000C94E100CC
:100030000C94E1000C94E1000C94E1000C94E100BC
:100040000C945B1D0C94E1000C9437190C94691905
:100050000C94E1000C94E1000C94E1000C94E1009C
:100060000C9414110C94E10054686520646570745C
:1000700068206973203A00546865206C6967687469
:10008000206C6576656C206973203A0054686520A1
:1000900054656D70657261747572652069733A207C
:1000A0000041542B43434C4B3F0041542B43504D94
:1000B000533F002B43504D533A2022534D222C00E6
:1000C00041542B434D47463D31004F4B0041542B8B
:1000D000435245473F002B435245473A2000415485
:1000E0004530004F4B0041544530004F4B004154C8
:1000F000004F4B004154004F4B004154004F4B0008
:10010000464F4E4100464F4E416E65740000000060
:1001100008000201000003040700000000000000C6
:100120000001020408102040800102040810200190
:10013000020408102004040404040404040202025B
:10014000020202030303030303000000002300264E
:1001500000290000000000250028002B00000000FE
:1001600000240027002A0000840A1713AB159919F0
:10017000940A11241FBECFEFD8E0DEBFCDBF13E03D
:10018000A0E0B1E0E8EEFEE402C005900D92A037D9
:10019000B107D9F726E0A0E7B3E001C01D92A43C67
:1001A000B207E1F711E0C0E7D1E004C02297FE01F9
:1001B0000E94B821C836D107C9F70E944C1D0C9483
:1001C00067270C9400008091D9039091DA0301967F
:1001D0009093DA038093D90361E08DE00E94B91E09
:1001E00064E670E080E090E00E94D41D83E00E940D
:1001F000EF1E892BD9F360E08DE00C94B91E80E0EE
:100200000E94AE1B81E08093CD0361E08DE00E94EF
:10021000B91E68EE73E080E090E00C94D41D83B7C3
:10022000817F846083BF83B7816083BF83B7816030
:1002300083BF889583B78E7F83BF83B78E7F83BF4D
:100240000895CF92DF92EF92FF9288E00E94EF1E16
:10025000892BE9F060E087E00E94B91E0E94A51D8D
:100260006B017C0180EDC80E87E0D81EE11CF11CFB
:100270000E94A51DC616D706E806F906C8F761E074
:1002800087E0FF90EF90DF90CF900C94B91EFF9025
:10029000EF90DF90CF9008958F929F92AF92BF9290
:1002A000CF92DF92EF92FF924C010E94A51D6093C6
:1002B000BE037093BF038093C0039093C103A12C2E
:1002C000B12CC090BE03D090BF03E090C003F0906B
:1002D000C103C80CD91CEA1CFB1C0E94A51DC61634
:1002E000D706E806F90668F7FF90EF90DF90CF9009
:1002F000BF90AF909F908F900895CF92DF92EF9232
:10030000FF9288E00E94EF1E892B09F560E087E0EC
:100310000E94B91E0E94A51D6B017C0180EDC80ED4
:1003200087E0D81EE11CF11C0E94A51DC616D70649
:10033000E806F906C8F761E087E00E94B91E80E18F
:1003400097E2FF90EF90DF90CF900C944C01FF90DC
:10035000EF90DF90CF900895CF92DF92EF92FF92CF
:100360000E94A51D6093BE037093BF038093C003DA
:100370009093C1038CED93E00E94550E811125C02E
:1003800088EE93E00E944C018CED93E00E94550EA4
:1003900081111BC0C090BE03D090BF03E090C0038A
:1003A000F090C1030E94A51D20E3C20E25E7D21ED6
:1003B000E11CF11CC616D706E806F906D8F2FF9034
:1003C000EF90DF90CF900C942101FF90EF90DF90A1
:1003D000CF900895EF92FF920F931F93CF93DF93E7
:1003E000CDB7DEB7CB54D1090FB6F894DEBF0FBE40
:1003F000CDBF8C0164E671E086E196E00E946E1A42
:100400004AE050E0B80186E196E00E94231B68EEC6
:1004100073E080E090E00E94D41D0115110551F4B5
:100420000E947D010E94AC0168E873E180E090E0E9
:100430000E94D41DCE0101967C018BE4F70111923C
:100440008A95E9F7C801880F991FFC01E153FC4F19
:1004500020813181FC01EC58FC4F41814F93408158
:100460004F931F921F92FC01E857FC4F41814F931D
:1004700040814F93FC01E258FC4F41814F934081F2
:100480004F93FC01EE56FC4F81818F9380818F93B7
:100490003F932F93F801EE0FFF1FEE0FFF1FEA555A
:1004A000FC4F83818F9382818F9381818F93808191
:1004B0008F93809118018F93809117018F93809172
:1004C00016018F93809115018F938DE691E09F9394
:1004D0008F93FF92EF920E949624A7016AE071E049
:1004E0008CED93E00E94510C88EB9BE00E944C0144
:1004F00068E971E086E196E00E946E1A88EE93E06A
:100500000E944C010FB6F894DEBF0FBECDBF023083
:10051000110511F40E942101C55BDF4F0FB6F8945D
:10052000DEBF0FBECDBFDF91CF911F910F91FF9026
:10053000EF900895AF92BF92CF92DF92EF92FF9229
:100540000F931F93CF93DF93CDB7DEB72B970FB6E3
:10055000F894DEBF0FBECDBF0E94AC010EE181E07A
:100560004BE0B42E5AE0A52E2091BC033091BD0380
:10057000482F50E0241735070CF467C0E8EBF1E092
:10058000DE0111969B2D01900D929A95E1F76A2D4F
:100590000E941821192F805D898780E3890F8A873F
:1005A000BE016F5F7F4F8091F1049091F2040E9431
:1005B0006E1A8091F1049091F2040E94481A88EB1F
:1005C0009BE00E944C01612F8CED93E00E94FE0C99
:1005D000882329F00150C9F181E0810FC5CF88EE51
:1005E00093E00E944C010E94A51D6093BE0370938E
:1005F000BF038093C0039093C103612F8CED93E000
:100600000E94FE0C8111E6CF88EE93E00E944C011F
:10061000612F8CED93E00E94FE0C8111DBCFC09026
:10062000BE03D090BF03E090C003F090C1030E94CE
:10063000A51D28E8C20E23E1D21EE11CF11C6C1599
:100640007D058E059F05C8F6C5CF6CEA71E08091E7
:10065000F1049091F2040E946E1A1092BD03109260
:10066000BC030E9421012B960FB6F894DEBF0FBE8B
:10067000CDBFDF91CF911F910F91FF90EF90DF9051
:10068000CF90BF90AF900895CF92DF92EF92FF92FC
:100690000F931F93CF93DF93CDB7DEB7CC54D1091F
:1006A0000FB6F894DEBF0FBECDBF8E010F5F1F4F98
:1006B00080E4F80111928A95E9F740E450E0B8012E
:1006C0008CED93E00E94F60B882309F4E0C0B8019A
:1006D000CE01895B9F4F0E94CD1C63EC71E086E1E7
:1006E00096E00E943F1A4AE050E06091CC0386E118
:1006F00096E00E944F1B23E030E041E050E0BE0155
:10070000695B7F4FCE018F5B9F4F0E94FB1CCE0128
:100710008F5B9F4F0E94401D162F072FCE018F5BCE
:100720009F4F0E945F1C66ED71E086E196E00E949B
:100730003F1A4AE050E0612F702F86E196E00E9458
:10074000231B125E1093CC0326E030E044E050E01F
:10075000BE01695B7F4FCE018F5B9F4F0E94FB1CE8
:10076000CE018F5B9F4F0E94401D6093CB03CE0153
:100770008F5B9F4F0E945F1C29E030E047E050E014
:10078000BE01695B7F4FCE018F5B9F4F0E94FB1CB8
:10079000CE018F5B9F4F0E94401D6093CA03CE0124
:1007A0008F5B9F4F0E945F1C1092C9032CE030E0CA
:1007B0004AE050E0BE01695B7F4FCE018F5B9F4FE7
:1007C0000E94FB1CCE018F5B9F4F0E94401D6093D7
:1007D000C803CE018F5B9F4F0E945F1C2FE030E06B
:1007E0004DE050E0BE01695B7F4FCE018F5B9F4FB4
:1007F0000E94FB1CCE018F5B9F4F0E94401D6093A7
:10080000C703CE018F5B9F4F0E945F1C22E130E047
:1008100040E150E0BE01695B7F4FCE018F5B9F4F8F
:100820000E94FB1CCE018F5B9F4F0E94401D609376
:10083000C603CE018F5B9F4F0E945F1C66EC73E086
:100840008BED93E00E9412171092CC031092CB0311
:100850001092CA031092C9031092C8031092C703E2
:100860001092C603CE01895B9F4F0E945F1CC45B40
:10087000DF4F0FB6F894DEBF0FBECDBFDF91CF9133
:100880001F910F91FF90EF90DF90CF9008950E94FD
:10089000A51D6093BE037093BF038093C003909324
:1008A000C10388EE93E00E944C0140E450E0B8019F
:1008B0008CED93E00E94F60B811109CF40E450E0EB
:1008C000B8018CED93E00E94F60B811100CFC0902F
:1008D000BE03D090BF03E090C003F090C1030E941C
:1008E000A51DF8EACF0EF1E6DF1EE11CF11C6C1528
:1008F0007D058E059F05C8F6EACE4F925F926F92F6
:100900007F928F929F92AF92BF92CF92DF92EF929F
:10091000FF920F931F93CF93DF93EC0161E08BE085
:100920000E94B91E64EF71E080E090E00E94D41D47
:1009300081E10E943A1ECC0FDD1F9E0122583C4FE0
:100940003901F90191838083BC0180E090E01F921E
:100950001F922AE02F9320EF2F93A12CB12C650139
:10096000EE24EA9413E0F12E00E010E020E030E005
:10097000A9010E94181C80E090E00E94172020E04E
:1009800030E040E251E40E947E1F20E030E048E485
:1009900052E40E94191F20E030E040E151E40E943F
:1009A000A52020E030E040EA50E40E947E1F20E0D5
:1009B00030E040E052E40E941A1F6093700370938D
:1009C000710380937203909373030E94E61FF301F7
:1009D000718360836CE870E086E196E00E941A1AE9
:1009E000F301608171814AE050E086E196E00E9467
:1009F000661B9E012E563C4F2901F901118210827F
:100A000067E770E086E196E00E941A1AF2016081C1
:100A100071814AE050E086E196E00E94661B68EE34
:100A200073E080E090E00E94D41D8EE00E943A1EA8
:100A30009E0128573C4F4901F90191838083BC01F5
:100A400080E090E01F921F9224E02F932BE82F93D9
:100A500013E9E12E13E0F12E00E010E024EB30E08A
:100A600040E050E00E94181CF4017183608360E054
:100A70008BE00E94B91E64EF71E080E090E00E947C
:100A8000D41D68E670E086E196E00E941A1AF4012F
:100A9000608171814AE050E086E196E00E94661B29
:100AA0008BED93E00E94DF17CC58DC4F998388834D
:100AB00062EE71E086E196E00E943F1A68817981DA
:100AC0004AE050E086E196E00E94661B64EF71E028
:100AD00080E090E00E94D41D6881798180E090E000
:100AE0000E94172020E030E040E85EE30E94A5204D
:100AF00020E030E040E151E40E94A52020E030E019
:100B000040EA50E40E947E1F20E030E040E052E4E2
:100B10000E941A1F60937003709371038093720395
:100B2000909373030E94E61F7983688362EF71E0FC
:100B300086E196E00E943F1A688179814AE050E0A0
:100B400086E196E00E94661B609115017091160186
:100B5000809117019091180128EE33E040E050E0B9
:100B60000E9438218DB79EB708960FB6F8949EBFA5
:100B70000FBE8DBF293131054CF0F3011182108277
:100B8000F20111821082F40111821082DF91CF9163
:100B90001F910F91FF90EF90DF90CF90BF90AF909B
:100BA0009F908F907F906F905F904F900895CF921D
:100BB000DF92EF92FF920F931F93CF93DF93EC019D
:100BC0000E94AB166093C2037093C3038093C40367
:100BD0009093C5036091C2037091C3038091C403D5
:100BE0009091C50346EC53E00E94A40ECC0FDD1F8C
:100BF000CC0FDD1FCA55DC4FA091CA03B0E020E442
:100C000032E44FE050E00E948F216B017C01A09103
:100C1000CB03B0E020E031EE45EF55E00E948F219C
:100C2000C60ED71EE81EF91EC882D982EA82FB8250
:100C3000BCECEB2EB3E0FB2EF701008110E00E516F
:100C400011096CEC71E086E196E00E943F1A4AE0DF
:100C500050E0F701608186E196E00E944F1B6FEF44
:100C600071E086E196E00E943F1AA801662757FDD1
:100C70006095762F2AE030E086E196E00E947C1BAA
:100C8000C090C803F4E6CF9E60011124EE24D7FC87
:100C9000E094FE2C88819981AA81BB81C80ED91E5F
:100CA000EA1EFB1E8091C703C80ED11CE11CF11C7B
:100CB00020E137E2D8010E948821C60ED71EE81E27
:100CC000F91EC882D982EA82FB826CE072E086E17A
:100CD00096E00E943F1A488159816A817B812AE00F
:100CE00030E086E196E0DF91CF911F910F91FF9068
:100CF000EF90DF90CF900C947C1BCF92DF92EF921D
:100D0000FF920F931F93CF93DF93CDB7DEB7CB54F2
:100D1000D1090FB6F894DEBF0FBECDBF0E94AB164F
:100D20006093C2037093C3038093C4039093C5037D
:100D30006091C2037091C3038091C4039091C50375
:100D400046EC53E00E94A40E8E010F5F1F4F8BE410
:100D5000F80111928A95E9F70E94A51D6093BE03E0
:100D60007093BF038093C0039093C1038CED93E015
:100D70000E94740E1816190664F488EE93E00E941F
:100D80004C018CED93E00E94740E9093BD03809310
:100D9000BC038091BC039091BD0397FD6EC080E0C1
:100DA00090E00E94D7058091150190911601A091C5
:100DB0001701B091180189519C4FAF4FBF4F8093DD
:100DC000150190931601A0931701B09318011F927B
:100DD0001F921F921F921F921F921F921F9220918B
:100DE000A9032F932091A8032F932091A7032F935A
:100DF0002091A6032F93BF93AF939F938F938BE183
:100E000092E09F938F931F930F930E94962480915B
:100E1000150190911601A0911701B0911801875EFC
:100E20009340A109B1098093150190931601A093F5
:100E30001701B09318011092A6031092A703109205
:100E4000A8031092A903A8016AE071E08CED93E079
:100E50000E94510C88EB9BE00E944C018091BC03E6
:100E60009091BD030FB6F894DEBF0FBECDBF18162C
:100E70001906DCF50E949A0238C08CED93E00E94BE
:100E8000740E9093BD038093BC038CED95E00E949B
:100E90004C018091BC039091BD0397FF80CF8CEDF6
:100EA00095E00E944C018CED93E00E94740E9093AB
:100EB000BD038093BC03C090BE03D090BF03E090FD
:100EC000C003F090C1030E94A51D38E9C30E3AE3A8
:100ED000D31EE11CF11CC616D706E806F906C8F2B7
:100EE0001092BD031092BC03D4CFC55BDF4F0FB689
:100EF000F894DEBF0FBECDBFDF91CF911F910F9150
:100F0000FF90EF90DF90CF900895CF92DF92EF9215
:100F1000FF920F931F93CF93DF9380E00E94371EC1
:100F200060E08EE00E94801E60E08FE00E94801EE4
:100F300060E081E10E94801E61E08BE00E94801EE3
:100F400061E08DE00E94801E61E087E00E94801ECB
:100F500061E087E00E94B91E60E088E00E94801E88
:100F600061E088E00E94B91E60E083E00E94801E7C
:100F700061E083E00E94B91E60E082E00E94801E72
:100F800061E082E00E94B91E0E947D0126E040E0FF
:100F90005BE460E070E086E196E00E94DB1840E0F0
:100FA0005BE460E070E083EF94E00E94111563EF72
:100FB00074E08CED93E00E945E0D0E94AC01C1EFE5
:100FC000D4E06BE372E0888199810E946E1A88EE0A
:100FD00093E00E944C0165E472E0888199810E944F
:100FE0006E1A88EE93E00E944C0167E572E08881FA
:100FF00099810E946E1A88EE93E00E944C016CEA7F
:1010000071E0888199810E946E1A80ED97E00E94BC
:101010004C0161E672E0888199810E946E1A88EE27
:1010200093E00E944C010E94440388EE93E00E94EA
:101030004C0140E050E063EE70E081E00E948E1BC6
:1010400040E061E08BED93E00E94961761E08BED4C
:1010500093E00E94BF1740E062E08BED93E00E94B6
:10106000961762E08BED93E00E94BF170E947D0609
:1010700088EB9BE00E944C010E94AB166093C20378
:101080007093C3038093C4039093C5034091C2033C
:101090005091C3036091C4037091C5032AE030E00E
:1010A00086E196E00E947C1B8091C2039091C3036D
:1010B000A091C403B091C503845D9E4FAF4FBF4F55
:1010C0008093C2039093C303A093C403B093C5035A
:1010D0004091C2035091C3036091C4037091C50352
:1010E0002AE030E086E196E00E947C1B6091C2031A
:1010F0007091C3038091C4039091C50346EC53E003
:101100000E94A40ECAECEC2EC3E0FC2E4AE050E094
:10111000F701608186E196E00E94481B66E672E076
:1011200086E196E00E943F1A08EC13E04AE050E0A6
:10113000F801608186E196E00E94481B66E672E055
:1011400086E196E00E943F1AD7ECCD2ED3E0DD2E4B
:101150004AE050E0F601608186E196E00E94481B7B
:1011600066E672E086E196E00E943F1AC6ECD3E0A4
:101170004AE050E0688186E196E00E94481B66E9FB
:1011800071E086E196E00E943F1A61E08BED93E00A
:101190000E94BF1740E061E08BED93E00E9496173C
:1011A000F701E080F8010081F6012081488160E0CC
:1011B00070E08BED93E00E94F41541E061E08BED6F
:1011C00093E00E94961740E050E06FEF70E080E0FF
:1011D0000E948E1B0E94210168E672E086E196E083
:1011E000DF91CF911F910F91FF90EF90DF90CF9003
:1011F0000C946E1AEF920F93CF93DF9361E772E036
:1012000086E196E00E946E1A6EE772E086E196E053
:101210000E943F1A6091CD0370E04AE050E086E101
:1012200096E00E94231B6AE872E086E196E00E9445
:101230003F1A6091CE0370E04AE050E086E196E00C
:101240000E94231B68EE73E080E090E00E94D41DB2
:101250008091CD03882309F443C161E08BED93E0D5
:101260000E94BF17882309F43BC18091BA03909173
:10127000BB030E94D7058091BA039091BB030E94E3
:101280007D048091BA039091BB032091D9033091E2
:10129000DA03FC01EE0FFF1FE153FC4F3183208383
:1012A0001092DA031092D90301969093BB038093B6
:1012B000BA0364E671E086E196E00E943F1A60910D
:1012C000BA037091BB034AE050E086E196E00E94C9
:1012D000231B8091BA039091BB0303970CF0C9C004
:1012E0000E94AB166093C2037093C3038093C40340
:1012F0009093C5034091C2035091C3036091C4030E
:101300007091C5032AE030E086E196E00E947C1BE4
:101310008091C2039091C303A091C403B091C5030F
:10132000845D9E4FAF4FBF4F8093C2039093C30322
:10133000A093C403B093C5034091C2035091C3036B
:101340006091C4037091C5032AE030E086E196E025
:101350000E947C1B6091C2037091C3038091C403FF
:101360009091C50346EC53E00E94A40E61E08BED22
:1013700093E00E94BF1740E061E08BED93E00E9494
:1013800096176FE972E086E196E00E943F1A60913D
:10139000C2037091C3038091C4039091C50346ECCE
:1013A00053E00E94A40E4AE050E06091CA0386E137
:1013B00096E00E94481B66E672E086E196E00E9495
:1013C0003F1A4AE050E06091C80386E196E00E942F
:1013D000481B66E672E086E196E00E943F1A4AE00A
:1013E00050E06091C70386E196E00E94481B66E6E4
:1013F00072E086E196E00E943F1A4AE050E0609178
:10140000C60386E196E00E94481B66E971E086E12A
:1014100096E00E943F1A60ED77E080E090E00E9445
:10142000D41DE090CA030091C8032091C7034091E6
:10143000C60360E070E08BED93E00E94F41541E09C
:1014400061E08BED93E00E94961740E050E06FEF73
:1014500070E080E00E948E1B60E08DE00E94B91E6B
:1014600068EE73E080E090E00E94D41D1092CD03FE
:1014700037C0C0E0D0E0CE010E94EA012196C5301D
:10148000D105C9F71092BB031092BA036CE973E05F
:1014900042E953E02EE733E0C6EAD3E0A8E8B3E040
:1014A00080E090E0FB0111921192BF01FA011192CC
:1014B0001192AF01F901119211929F0119921992A3
:1014C000199219921D921D92FC01EE0FFF1FE1531C
:1014D000FC4F1182108201968530910519F700CFDB
:1014E0009091CE032091CD0381E0281741F0981709
:1014F00031F0DF91CF910F91EF900C940F01DF91BC
:10150000CF910F91EF90089520E045E066E083EFE2
:1015100094E00E94E11464E08CED93E00E94D40A10
:101520008BED93E00C949F1583EF94E00C9488145A
:101530008B5E9E4FDC018D919C91DC01ED91FC91C5
:101540000480F581E02D09948B5E9E4FDC018D9126
:101550009C91DC01ED91FC910190F081E02D0994CA
:101560008B5E9E4FDC018D919C91DC01ED91FC9195
:101570000680F781E02D09948B5E9E4FDC018D91F2
:101580009C91DC01ED91FC910084F185E02D0994A2
:101590008B5E9E4FDC018D919C91DC01ED91FC9165
:1015A0000284F385E02D0994FC01262F1382128218
:1015B00048EE53E060E070E04483558366837783B0
:1015C00087E293E0918380832487DF01A45FBE4F8D
:1015D00085E091E011969C938E93129611961C9241
:1015E0001E92129611961C921E92159611961C929E
:1015F0001E9213971C92ED5EFE4F80E091E0918366
:10160000808308950F931F93CF93DF93EC0100E045
:1016100010E0C801019608321105D8F48C01E88168
:10162000F9810480F581E02DCE010995892B51F0D7
:10163000E881F9810680F781E02DCE01099500E06F
:1016400010E0EDCF61E070E080E090E00E94D41DFA
:10165000E0CFDF91CF911F910F910895BF92CF926C
:10166000DF92EF92FF920F931F93CF93DF937C0152
:10167000B42EC0E0D0E061157105B9F18B016C01A9
:101680008BEEC81A8EEFD80ACE3FD10570F5F60161
:1016900080819181DC01ED91FC910480F581E02D48
:1016A0000995892BC1F0D6018D919C91DC01ED91BA
:1016B000FC910680F781E02D09958D3041F38A3049
:1016C00021F4209721F3BB2081F0F701EC0FFD1FDF
:1016D00085872196DCCF0150110939F061E070E077
:1016E00080E090E00E94D41DCFCFF701EC0FFD1FEA
:1016F00015868C2FDF91CF911F910F91FF90EF9066
:10170000DF90CF90BF900895EF92FF920F931F93B9
:10171000CF93DF93EC018B017A010E94020B63EB04
:1017200072E086E196E00E943F1AB80186E196E0F9
:101730000E946E1AFE01EB5EFE4FB801808191811E
:101740000E946E1A40E0B701CE010E942E0B182FA6
:101750006AEB72E086E196E00E943F1ABE01635F89
:101760007F4F86E196E00E946E1A812FDF91CF9124
:101770001F910F91FF90EF900895EF92FF920F93BA
:101780001F93CF93DF93EC018B017A010E94020B30
:1017900063EB72E086E196E00E943F1AB80186E1B1
:1017A00096E00E945C1AFE01EB5EFE4FB80180815C
:1017B00091810E945C1A40E0B701CE010E942E0B7D
:1017C000182F6AEB72E086E196E00E943F1ABE0194
:1017D000635F7F4F86E196E00E946E1A812FDF9152
:1017E000CF911F910F91FF90EF900895EF92FF928C
:1017F0000F931F93CF93DF938C017B01EA0140E1AC
:1018000057E261EA70E00E94BD0B47E050E060EDF6
:1018100072E0C8010D960E944224892B11F5B8018F
:101820006C5E7F4FAE0141505109EB0109900020E1
:10183000E9F72197C61BD70B4C175D0708F4EA019F
:10184000AE014F5F5F4FC7010E945024CE0DDF1DD8
:10185000188240E064EF71E0C8010E942E0B81E025
:1018600001C080E0DF91CF911F910F91FF90EF9029
:1018700008950F931F93CF93DF93EC018A01A90181
:101880000E94840BB801CE010D960E94322421E003
:10189000892B09F020E0822FDF91CF911F910F91CA
:1018A0000895AF92BF92CF92DF92EF92FF920F9383
:1018B0001F93CF93DF93CDB7DEB76E970FB6F89433
:1018C000DEBF0FBECDBF8C015B016A0124EF31E0AA
:1018D0004AED52E06BE372E00E94390C882309F470
:1018E0007BC08AE0E8E2F1E09E012F5F3F4F790183
:1018F000D90101900D928A95E1F7FE013B9684E1B2
:10190000DF011D928A95E9F743E150E0B501CE0170
:101910000A960E945024F70101900020E9F73197C0
:1019200082E2808324EF31E047EB52E0B701C80147
:101930000E94390C811102C080E04FC067EB72E059
:1019400086E196E00E943F1AB60186E196E00E9489
:101950006E1AB6017801BBEEEB1ABEEFFB0AF70177
:10196000808191810E946E1AD7018D919C910E9475
:10197000481AF70180819181DC01ED91FC91019081
:10198000F081E02D6AE109956DED72E086E196E067
:101990000E946E1A40E060E177E2C8010E942E0BBF
:1019A0007801BDE0EB0EF11C60EE72E0C7010E9411
:1019B0005F24892B09F240E068EE73E0C8010E94C1
:1019C0002E0B6AED72E0C7010E94322421E0892BC0
:1019D00009F020E0822F01C081E06E960FB6F894E6
:1019E000DEBF0FBECDBFDF91CF911F910F91FF9052
:1019F000EF90DF90CF90BF90AF900895FF920F933C
:101A00001F93CF93DF93CDB7DEB72C970FB6F89423
:101A1000DEBF0FBECDBF8C01F62E24EF31E04AEDC4
:101A200052E06BE372E00E94390C882311F19CE0D4
:101A3000E6EEF2E0DE01119601900D929A95E1F743
:101A40008F2D64E60E941821805D8987892F6AE0C6
:101A50000E941821805D8A87905D9B8720ED37E08A
:101A60004AED52E0BE016F5F7F4FC8010E94390C02
:101A700001C081E02C960FB6F894DEBF0FBECDBF3B
:101A8000DF91CF911F910F91FF9008950F931F93B6
:101A9000CF93DF93EC018A01A9010E94BD0BB8012D
:101AA000CE010D960E94F22321E0892B09F020E05F
:101AB000822FDF91CF911F910F9108950F931F9364
:101AC000CF93DF93EC018C010B5E1E4FD8016D9319
:101AD0007C9361E08C850E94801E61E08C850E9471
:101AE000B91E6AE070E080E090E00E94D41D60E0E2
:101AF0008C850E94B91E64E670E080E090E00E9450
:101B0000D41D61E08C850E94B91E68EB7BE080E00B
:101B100090E00E94D41DF80180819181DC01ED915B
:101B2000FC910480F581E02D0995892B59F0F8018D
:101B300080819181DC01ED91FC910680F781E02D9F
:101B40000995E9CF24EF31E04DEF50E06AEF70E006
:101B5000CE010E94460D64E670E080E090E00E94B5
:101B6000D41D24EF31E047EF50E064EF70E0CE0188
:101B70000E94460D64E670E080E090E00E94D41D73
:101B800024EF31E041EF50E06EEE70E0CE010E94B4
:101B9000460D64E670E080E090E00E94D41D24EFE2
:101BA00031E04BEE50E066EE70E0CE010E94460D53
:101BB00064E670E080E090E00E94D41D24EF31E004
:101BC00043EE50E06EED70E0CE01DF91CF911F91BA
:101BD0000F910C94460DCF92DF92EF92FF920F93EC
:101BE0001F93CF93DF93EB016A01122F0D960E9492
:101BF00004247C010097D9F0CE010E94FB238E0DB6
:101C00009F1DF12CC12FDD27C7FDD095F01641F0A7
:101C1000BE010E942724009751F00196F394F6CF5D
:101C20000E94AD23F6019183808381E001C080E0B2
:101C3000DF91CF911F910F91FF90EF90DF90CF90A8
:101C400008958F929F92AF92BF92CF92DF92EF92C0
:101C50000F93CF93DF931F92CDB7DEB74C016A018C
:101C60005901202F0E2D44EF51E029830E94BD0B16
:101C70002981A501B601C4010E94EB0D882341F022
:101C800040E064EF71E0C4010E942E0B81E001C0CE
:101C900080E00F90DF91CF910F91EF90DF90CF9088
:101CA000BF90AF909F908F900895EF920F93CF9336
:101CB000DF9300D0CDB7DEB7EE24E3940CE29E01B3
:101CC0002F5F3F4F46ED50E06DEC70E00E94210E1B
:101CD000882311F0898101C080E00F900F90DF917F
:101CE000CF910F91EF900895CF92DF92EF920F93E3
:101CF000CF93DF9300D0CDB7DEB76C0124EF31E096
:101D00004AEC50E060EC70E00E94460D811103C087
:101D10008FEF9FEF10C0E12C0CE29E012F5F3F4F31
:101D200043EB50E06AEA70E0C6010E94210E88236E
:101D300079F389819A810F900F90DF91CF910F9164
:101D4000EF90DF90CF9008956F927F928F929F9245
:101D5000AF92BF92CF92DF92EF92FF920F931F93B9
:101D6000CF93DF93EA012CE3C22ED12CE12CF12C8E
:101D7000A70196010E9438216883CA01B901A70111
:101D800096010E9438216983CA01B90128E130E037
:101D900040E050E00E94382149015A016A83CA019B
:101DA000B9016C5F7F4F8F4F9F4F27E030E040E0DD
:101DB00050E00E9438216F5F6B8300E010E09801D3
:101DC00040E054E6652E712C60E9C62EDD24D394E4
:101DD000E42FF0E0EE54F84F7F0183E0E822FF2487
:101DE000E114F10489F4CF01B3010E942421892B6D
:101DF00029F08EE691E0A0E0B0E00AC0CF01B60184
:101E00000E942421892BA9F38DE691E0A0E0B0E0A7
:101E1000080F191F2A1F3B1FD901C801AA27BB277A
:101E200088169906AA06BB0610F04F5FD1CF4E83E5
:101E3000E114F10499F4CF0164E670E00E942421DA
:101E4000892B29F08EE691E0A0E0B0E00BC0CF0135
:101E500060E971E00E942421892BA1F38DE691E0D5
:101E6000A0E0B0E0081B190B2A0B3B0B801A910A6B
:101E7000A20AB30ACF0164E670E00E9424219C010B
:101E8000CF0160E971E00E942421E3E3F3E0A0E0E8
:101E9000A13059F4E114F10451F42115310511F088
:101EA0004DE106C00097E1F302C0408101C04CE162
:101EB00050E060E070E084169506A606B70640F094
:101EC000841A950AA60AB70AAF5F3196AC3001F7BB
:101ED000AF5FAD8383948C82DF91CF911F910F917F
:101EE000FF90EF90DF90CF90BF90AF909F908F903A
:101EF0007F906F9008956F927F928F929F92AF9292
:101F0000BF92CF92DF92EF92FF920F931F93CF93E6
:101F1000DF93FC01C680AC2DB0E020E833E341EE56
:101F200051E00E948F214B015C0122EB37E06D01F3
:101F3000C4E6D0E000E911E0C901825B97408C154E
:101F40009D05DCF4C90183709927892B99F4C90197
:101F5000BE010E942421892B31F4C901B8010E94DD
:101F60002421892B39F480E8880E81E5981E81E0D0
:101F7000A81EB11C2F5F3F4FDFCF6580712C8EE410
:101F8000C81A88EFD80AC60164E670E00E942421CE
:101F90008C01C60160E971E00E9424217C01C1E04E
:101FA000D0E083E0C822DD24C615D7052CF5C23069
:101FB000D10589F4C114D10471F40115110519F486
:101FC000E114F10441F480E8880E8BE3981E86E268
:101FD000A81EB11C0FC0DE01AE5CBC4FAC91B0E0DE
:101FE00020E831E541E050E00E948F21860E971EE7
:101FF000A81EB91E2196D8CF4181228130E0A0E1F0
:10200000BEE00E9479216B017C01242F30E0ACE31B
:10201000B0E00E947921C60ED71EE81EF91E80810D
:10202000C80ED11CE11CF11CA481B0E0119720E87E
:1020300031E541E050E00E949A21C60ED71EE81E0D
:10204000F91EC80CD91CEA1CFB1CC701B601DF91A4
:10205000CF911F910F91FF90EF90DF90CF90BF90A5
:10206000AF909F908F907F906F90089510927F0512
:1020700081E080937D0510927C0561E082E10E9401
:10208000B91E61E083E10E94B91EE9EBF0E08081B6
:102090008E7F808380818D7F808380E28093B800F3
:1020A00085E48093BC000895413208F03FC09091D0
:1020B0007F059111FCCF91E090937F0520937D05E2
:1020C0002FEF2093120510925705240F20935605E9
:1020D00090937E0590917E05880F892B80937E05D5
:1020E00080917C05813041F410927C0580917E05C1
:1020F0008093BB0085EC01C085EE8093BC0080918D
:102100007F058130E1F380915705841710F44091E9
:10211000570528E535E0FB01D9018A2F821B84177A
:1021200018F48D918193F9CF842F089580E008955C
:102130000F93413208F046C090917F059111FCCF7A
:1021400092E090937F0500937D059FEF9093120599
:102150001092570540935605FB0168E575E0DB01D9
:102160009A2F961B941718F491919D93F9CF109282
:102170007E0590917E05880F892B80937E05809146
:102180007C05813041F410927C0580917E0580931E
:10219000BB0085EC01C085EE8093BC00222321F0BA
:1021A00080917F058230E1F3809112058F3F61F0CD
:1021B00080911205803251F080911205803341F4F4
:1021C00083E007C081E005C080E003C082E001C079
:1021D00084E00F910895613298F420917F052430B6
:1021E00089F460933405FC0186E395E0DC012A2F35
:1021F000281B261718F421912D93F9CF80E008951C
:1022000081E0089582E0089585ED8093BC0080917F
:10221000BC0084FDFCCF10927F05089585EC80936F
:10222000BC0010927F0508951F920F920FB60F9277
:1022300011242F933F934F935F936F937F938F93CB
:102240009F93AF93BF93EF93FF938091B900887FE3
:10225000803609F49CC068F5883209F45BC090F4BC
:10226000803109F454C038F4882309F4F5C088306B
:1022700009F44DC0F5C0883109F44CC0803209F42E
:102280005DC0EEC0803409F468C048F4803309F4BE
:1022900055C0883309F0E4C080931205A8C080358A
:1022A00009F44FC0883509F45DC0883409F0D8C0FE
:1022B000D5C0883909F4C6C0A8F4883709F467C0C6
:1022C00038F4883609F463C0803709F460C0C8C0A8
:1022D000883809F4B7C0803909F45FC0803809F044
:1022E000BFC05BC0803B09F485C038F4803A09F474
:1022F00066C0883A09F47EC0B3C0803C09F4A6C029
:10230000883C09F4A3C0883B09F489C0A9C0809126
:102310007E0510C09091570580915605981770F56D
:10232000E091570581E08E0F80935705F0E0E85A61
:10233000FA4F80818093BB0085EC85C080931205A5
:102340008DC0E091570581E08E0F809357058091F5
:10235000BB00F0E0E85AFA4F8083909157058091D6
:1023600056056DC0E091570581E08E0F80935705AB
:102370008091BB00F0E0E85AFA4F808380917D05A0
:1023800081116CC081E080937C0584EA60C083E0A9
:1023900080937F0510921305CFCF80911305803273
:1023A00008F050C0E091130581E08E0F8093130573
:1023B0008091BB00F0E0EC5EFA4F8083BDCF80914E
:1023C0001305803230F4E0911305F0E0EC5EFA4F33
:1023D00010820E9404116091130570E0E09178056D
:1023E000F091790584E195E00995109213050E941A
:1023F0000E1136C084E080937F051092350510924F
:102400003405E0917A05F0917B05099580913405BA
:10241000811105C081E08093340510923605E0916A
:10242000350581E08E0F80933505F0E0EA5CFA4FC8
:1024300080818093BB009091350580913405981779
:1024400008F47ACF85E88093BC000AC085EC8093BD
:10245000BC0010927F0504C0109212050E94041166
:10246000FF91EF91BF91AF919F918F917F916F916C
:102470005F914F913F912F910F900FBE0F901F9042
:1024800018958091B00590E02091B105821B9109CB
:1024900008952091B1058091B005281750F4E22FDE
:1024A000F0E0EE54FA4F808190E02F5F2093B10569
:1024B00008958FEF9FEF0895E091B1058091B005E9
:1024C000E81730F4F0E0EE54FA4F808190E0089580
:1024D0008FEF9FEF08950895CF92DF92EF92FF92D2
:1024E0000F931F93CF93DF937C01CB018A0120913F
:1024F0008C05222389F0EB016B01C40ED51ECC158F
:10250000DD0569F06991D701ED91FC910190F081B1
:10251000E02DC7010995F3CF642F0E94EB10C8018D
:10252000DF91CF911F910F91FF90EF90DF90CF90AF
:102530000895CF93DF931F92CDB7DEB769832091C3
:102540008C052223D1F020918D05203240F021E02E
:1025500030E0FC013383228380E090E015C080915D
:102560008E05E82FF0E0E157FA4F998190838F5F55
:1025700080938E0580938D0505C061E0CE010196A4
:102580000E94EB1081E090E00F90DF91CF910895D1
:10259000FC011382128248EE53E060E070E0448355
:1025A00055836683778383E493E0918380830895E2
:1025B0001092B1051092B00510928E0510928D0503
:1025C0000C943610862F413208F040E262EB75E041
:1025D0000E9454101092B1058093B005089521E037
:1025E0000C94E21221E00C94E21281E080938C05BD
:1025F0006093AF0510928E0510928D0508950C948E
:10260000F5120F93062F21E040918D056FE875E0DC
:102610008091AF050E94981010928E0510928D0542
:1026200010928C050F91089561E00C94011380E8DD
:1026300095E00C94C81220911406309115062817C5
:102640003907B9F49091D2058091D305981789F094
:10265000E091D205F0E0EC52FA4F80812091D20552
:1026600030E02F5F3F4F2F7333272093D20590E048
:1026700008958FEF9FEF08951F93CF93DF93DC01B1
:102680005C968D919C915D97009749F481E090E074
:1026900013969C938E93129780E090E03BC05196E6
:1026A000ED91FC91529750962C915097322F309586
:1026B0001FB75E964C915E9741FB772770F941FDFD
:1026C0006095F8944081772311F0422B01C0432399
:1026D0004083EC012197F1F748E0508160FF02C090
:1026E000522B01C053235083EC012197F1F76695DB
:1026F000415099F78081772311F0832301C0822B09
:1027000080831FBF5C968D919C915D970197F1F737
:1027100081E090E0DF91CF911F9108952091140600
:10272000309115062817390781F49091D2058091D0
:10273000D305981751F0E091D205F0E0EC52FA4F32
:102740008081992787FD909508958FEF9FEF0895D9
:1027500020911406309115062817390771F48091DD
:10276000D3052091D20590E0805C9F4F821B910998
:1027700060E470E00E942421089580E090E00895D4
:1027800020911406309115062817390739F48FB7B0
:10279000F8941092D3051092D2058FBF0895E0915E
:1027A0001406F0911506E817F90769F4A389B489AE
:1027B0009C918589809589238C931092150610929F
:1027C000140681E0089580E00895CF93DF93EC0133
:1027D0008A8D9B8D892BF1F08091140690911506BE
:1027E0008C179D07B9F0009711F00E94CF138E8DC2
:1027F0008E7F8E8F1092D3051092D205D09315063E
:10280000C0931406EB89FC8980819D89892B808384
:1028100081E001C080E0DF91CF9108951F920F9277
:102820000FB60F9211242F933F934F935F936F93A3
:102830007F938F939F93AF93BF93EF93FF93E09119
:102840001406F0911506309709F451C0868DA685BF
:10285000B785958581FF04C08C91892329F447C0F1
:102860008C91892309F043C0A389B4899C918589FF
:10287000809589238C93868997890197F1F7208D1C
:10288000318DA685B785758558E040E0C90101976F
:10289000F1F7842F90E095958795482F6C916723E9
:1028A00009F04068515091F7868D81FD40958091E7
:1028B000D30590E001968F7399272091D2052817B0
:1028C00049F0A091D305B0E0AC52BA4F4C9380933D
:1028D000D30503C0868D8160868F828D938D01978D
:1028E000F1F7A389B4898C919589892B8C93FF91F9
:1028F000EF91BF91AF919F918F917F916F915F9178
:102900004F913F912F910F900FBE0F901F901895F0
:1029100023E533E0FC01318320830C94CF131F9314
:10292000CF93DF93EC01162F6E8D6695617081E079
:102930006827812F0E94B91E61E0812F0E94801EAE
:10294000812F90E0FC01EF5DFE4FE491E88BFC01EC
:10295000EB5CFE4FE491F0E0EE0FFF1FED5AFE4FEF
:10296000859194919A8B898BDF91CF911F910895D6
:102970001F93CF93DF93EC01162F60E0812F0E940D
:10298000801E8E8D81FD04C061E0812F0E94B91EE2
:102990001C87812F90E0FC01EF5DFE4FE491ED87F5
:1029A000FC01EB5CFE4FE491F0E0EE0FFF1FE75BF4
:1029B000FE4F859194919F878E87DF91CF911F91D4
:1029C0000895FF920F931F93CF93DF93EC01F62EA0
:1029D000522F1B821A8208EE13E020E030E00C83B5
:1029E0001D832E833F8383E593E0998388831F8A29
:1029F0001E8A198E188E1B8E1A8E1D8E1C8E8E8D21
:102A00008E7F50FB81F98E8F642FCE010E948F1430
:102A10006F2DCE01DF91CF911F910F91FF900C94FC
:102A2000B814CF93DF93EC019A01AB011B8E1A8E81
:102A3000198E188E1F8A1E8A60E874E88EE190E075
:102A40000E945A21C9012430310520F0B901635098
:102A5000710902C061E070E07D8F6C8FEC85E6311A
:102A600008F068C0B901769567956431710518F072
:102A70006351710902C061E070E07F8B6E8B069735
:102A800018F0C901059702C081E090E0998F888F06
:102A9000C901880F991F820F931F96958795969568
:102AA00087958D30910510F00C9702C081E090E081
:102AB0009B8F8A8F20916800E83050F091E0EE30D3
:102AC00008F490E081E001C0880F9A95EAF701C010
:102AD00084E0822B809368002C85283038F02E30DB
:102AE00040F0263148F48CE690E008C08DE690E096
:102AF00005C08BE690E002C080E090E09C8B8B8B61
:102B0000283030F481E001C0880F2A95EAF70DC023
:102B1000822F90E02E3010F4089701C00E9791E0BC
:102B200001C0990F8A95EAF7892F8D8B8C8D9D8D29
:102B30000197F1F7CE01DF91CF910C94E51380E876
:102B400095E00C94D812982F92959F702AEF929F3F
:102B5000800D1124089580E895E00C94D812EF922E
:102B6000FF920F931F93CF93DF9300D0CDB7DEB7C3
:102B7000062F122F68E670E080E895E049835A83BB
:102B80000E94FF12602F80E895E00E94991249810F
:102B9000042FE42E5A81F52E8E2D801B811740F4D0
:102BA000F70161917F0180E895E00E949912F4CFCE
:102BB00080E895E00F900F90DF91CF911F910F91DA
:102BC000FF90EF900C941413CF93DF931F92CDB727
:102BD000DEB7498321E0AE014F5F5F4F0E94AF1522
:102BE0000F90DF91CF910895CF92DF92EF92FF92F5
:102BF0000F931F93CF93DF931F92CDB7DEB76C0176
:102C0000562F342FEAE0842F6E2F0E941821482F70
:102C1000440F480F440F430F822F0E941821382F72
:102C2000330F380F330F320F802F0E941821182FC7
:102C3000110F180F110F100F8E2D0E941821082F41
:102C4000000F080F000F0E0D50FD406851FD306859
:102C500052FD106854FD106453FD006857FD09C013
:102C600067E0C60139830E94E41598E0F92E3981A6
:102C700002C08BE0F82E432F6F2DC6010E94E41591
:102C800061E06F0D412FC6010E94E41562E06F0DF7
:102C9000402FC6010F90DF91CF911F910F91FF90B0
:102CA000EF90DF90CF900C94E4151F93CF93DF93B8
:102CB000EC0168E670E080E895E00E94FF1260E0B9
:102CC00080E895E00E94991280E895E00E94141334
:102CD000182F81113BC047E050E068E670E080E8C3
:102CE00095E00E94F21280E895E00E9449128F77E9
:102CF0000E94A315888380E895E00E9449120E94F3
:102D0000A315898380E895E00E9449128F7B0E9479
:102D1000A3158A8380E895E00E9449128B8380E89E
:102D200095E00E9449120E94A3158C8380E895E0EB
:102D30000E9449128F770E94A3158D8380E895E049
:102D40000E9449120E94A315825E8E83812FDF911B
:102D5000CF911F910895CF93DF93CDB7DEB727971B
:102D60000FB6F894DEBF0FBECDBFCE0101960E9414
:102D70005516811105C0CE0101960E947B0F03C03C
:102D800060E070E0CB0127960FB6F894DEBF0FBE6F
:102D9000CDBFDF91CF910895EF92FF920F931F93D4
:102DA000CF93DF93C62F042FF52E122F68E670E025
:102DB00080E895E00E94FF126C2F80E895E00E9469
:102DC000991280E895E00E941413811114C0412FDC
:102DD00068E680E895E00E94EF12E02EC02FDF2D1C
:102DE0008C2F8E19811730F480E895E00E944912EB
:102DF0008993F6CF80E0DF91CF911F910F91FF90E3
:102E0000EF900895CF93DF931F92CDB7DEB721E007
:102E1000AE014F5F5F4F0E94CC1689810F90DF910A
:102E2000CF910895FF920F931F93CF93DF938C015F
:102E3000EB0168E670E080E895E00E94FF1260E038
:102E400080E895E00E94991228813AE0F32E822FC3
:102E50006F2D0E941821682F660F680F660F620F92
:102E600080E895E00E9499122981822F6F2D0E949F
:102E70001821682F660F680F660F620F80E895E0D3
:102E80000E9499122A81822F6F2D0E941821682F8B
:102E9000660F680F660F620F80E895E00E94991236
:102EA0006B8180E895E00E9499122C81822F6F2D12
:102EB0000E941821682F660F680F660F620F80E866
:102EC00095E00E9499122D81822F6F2D0E9418216A
:102ED000682F660F680F660F620F80E895E00E940A
:102EE00099122E812E51822F6F2D0E941821682F4A
:102EF000660F680F660F620F80E895E00E949912D6
:102F000080E895E00E941413C82F6FE0C8010E946A
:102F10000217482F4F776FE0C8010E94E4158C2FED
:102F2000DF91CF911F910F91FF900895EF92FF9243
:102F30001F93CF93DF931F92CDB7DEB77C01162F7F
:102F40006EE049830E940217115021E030E0012E0B
:102F500001C0220F0A94EAF74981442319F0482F4F
:102F6000422B03C0422F409548236EE0C7010F90CB
:102F7000DF91CF911F91FF90EF900C94E4151F9378
:102F8000CF93DF93EC01162F6FE00E9402171150D0
:102F900041E050E0012E01C0440F0A94EAF7982F57
:102FA000942341F0409548236FE0CE010E94E41540
:102FB00081E001C080E0DF91CF911F9108950F93D0
:102FC0001F93CF93DF938C0162E10E940217C82FF9
:102FD00061E1C8010E940217D82FCE0166E09595E5
:102FE00087956A95E1F7DF91CF911F910F91089531
:102FF000FC01818D228D90E0805C9F4F821B9109A6
:103000008F7399270895FC01918D828D981731F067
:10301000828DE80FF11D858D90E008958FEF9FEF71
:103020000895FC01918D828D981761F0828DDF01EA
:10303000A80FB11D5D968C91928D9F5F9F73928FAB
:1030400090E008958FEF9FEF08958FE899E1892B25
:1030500049F080E090E0892B29F00E948F198111BE
:103060000C9400000895FC01848DDF01A80FB11DB0
:10307000A35ABF4F2C91848D90E001968F739927AE
:10308000848FA689B7892C93A089B1898C9180649B
:103090008C93938D848D981306C00288F389E02D5C
:1030A00080818F7D80830895CF93DF93EC01888D9D
:1030B0008823C9F0EA89FB89808185FD05C0A8893C
:1030C000B9898C9186FD0FC00FB607FCF5CF8081C2
:1030D00085FFF2CFA889B9898C9185FFEDCFCE010C
:1030E0000E943318E7CFDF91CF910895CF92DF92FE
:1030F000FF920F931F93CF93DF931F92CDB7DEB74D
:103100006C01DC015B969C915B975C968C915C9763
:10311000981307C05096ED91FC915197808185FDE1
:1031200032C0F601038D10E00F5F1F4F0F731127A0
:10313000F02EF601848DF81211C00FB607FCF9CFFE
:10314000D6015096ED91FC915197808185FFF1CF8A
:10315000C60169830E9433186981EBCF838DE80F24
:10316000F11DE35AFF4F6083D6015B960C935B978A
:103170005296ED91FC91539780818062808381E02B
:1031800058968C930DC0D6015696ED91FC915797A9
:1031900060835096ED91FC9151978081806480838B
:1031A00081E090E00F90DF91CF911F910F91FF9000
:1031B000DF90CF900895BF92CF92DF92EF92FF926F
:1031C000CF93DF93EC016A017B01B22E60E874E8D3
:1031D0008EE190E0A70196010E943821215031092B
:1031E000410951095695479537952795E889F989F9
:1031F00082E08083211580E1380798F0E889F98919
:10320000108260E472E48FE090E0A70196010E94D2
:103210003821215031094109510956954795379573
:103220002795EC85FD853083EE85FF852083188EFC
:10323000EC89FD89B082EA89FB8980818061808385
:10324000EA89FB89808188608083EA89FB898081A3
:1032500080688083EA89FB8980818F7D8083DF910C
:10326000CF91FF90EF90DF90CF90BF9008951F9285
:103270000F920FB60F9211242F938F939F93EF937A
:10328000FF93E0912606F09127068081E0912C06BD
:10329000F0912D0682FD12C0908180912F068F5FE4
:1032A0008F7320913006821751F0E0912F06F0E0E5
:1032B000EA5EF94F958F80932F0601C08081FF91C0
:1032C000EF919F918F912F910F900FBE0F901F90B4
:1032D00018951F920F920FB60F9211242F933F93C0
:1032E0004F935F936F937F938F939F93AF93BF930E
:1032F000EF93FF9386E196E00E943318FF91EF91E0
:10330000BF91AF919F918F917F916F915F914F91FD
:103310003F912F910F900FBE0F901F90189586E14F
:1033200096E00E94F81721E0892B09F420E0822F13
:103330000895109219061092180688EE93E0A0E006
:10334000B0E080931A0690931B06A0931C06B093DE
:103350001D0683E693E0909317068093160685EC8E
:1033600090E0909323068093220684EC90E0909363
:1033700025068093240680EC90E0909327068093A6
:10338000260681EC90E0909329068093280682EC33
:1033900090E090932B0680932A0686EC90E0909321
:1033A0002D0680932C0610922F0610923006109254
:1033B0003106109232060895CF92DF92EF92FF927B
:1033C0000F931F93CF93DF936C017A01EB01E60E0D
:1033D000F71E00E010E0CE15DF0561F06991D6011F
:1033E000ED91FC910190F081E02DC6010995080F47
:1033F000191FF1CFC801DF91CF911F910F91FF905D
:10340000EF90DF90CF9008956115710581F0DB0199
:103410000D900020E9F7AD0141505109461B570BB3
:10342000DC01ED91FC910280F381E02D099480E0B4
:1034300090E00895EF92FF920F931F93CF93DF9345
:103440008C01FB01C0E0D0E064917F018FEFE81AAE
:10345000F80A662361F0D801ED91FC910190F081AA
:10346000E02DC8010995C80FD91FF701EDCFCE0196
:10347000DF91CF911F910F91FF90EF9008950C94E1
:10348000041ADC01ED91FC910190F081E02D09948A
:103490000F931F93CF93DF93EC016DE00E94411ACD
:1034A0008C016AE0CE010E94411A800F911FDF91CA
:1034B000CF911F910F9108950F931F93CF93DF9397
:1034C000EC010E941A1A8C01CE010E94481A800F4A
:1034D000911FDF91CF911F910F9108950F931F932B
:1034E000CF93DF93EC010E94041A8C01CE010E945D
:1034F000481A800F911FDF91CF911F910F9108956E
:103500008F929F92AF92BF92CF92DF92EF92FF92F3
:103510000F931F93CF93DF93CDB7DEB7A1970FB66D
:10352000F894DEBF0FBECDBF7C01C42EE52FCB01CA
:10353000D22E19A221E02D1510F02AE0D22E8E01F4
:103540000F5D1F4F8D2C912CA12CB12C6C2D7E2F3B
:10355000A50194010E9438218C2DD29E801911243E
:10356000015011098A3014F4805D01C0895CF801B2
:103570008083211531054105510521F0C22EE32F2D
:10358000CA01E4CFB801C7010E94041AA1960FB680
:10359000F894DEBF0FBECDBFDF91CF911F910F9189
:1035A000FF90EF90DF90CF90BF90AF909F908F9063
:1035B0000895CF92DF92EF92FF920F931F93CF93D4
:1035C000DF93EC016A017B012115310579F4E88173
:1035D000F9810190F081E02D642FDF91CF911F914F
:1035E0000F91FF90EF90DF90CF9009942A30310532
:1035F000E9F477FF1AC06DE20E94411A8C0144275A
:103600005527BA014C195D096E097F092AE0CE01E0
:103610000E94801A800F911FDF91CF911F910F910F
:10362000FF90EF90DF90CF9008952AE0B701A601B8
:10363000CE01DF91CF911F910F91FF90EF90DF901E
:10364000CF900C94801A0F931F93CF93DF93EC01CC
:103650009A01AB01662757FD6095762F0E94D91A13
:103660008C01CE010E94481A800F911FDF91CF91EB
:103670001F910F9108952115310541F4DC01ED9161
:10368000FC910190F081E02D642F09940C94801A34
:103690009A01462F50E060E070E00C943B1B0F93C2
:1036A0001F93CF93DF93EC019A01462F50E060E027
:1036B00070E00E943B1B8C01CE010E94481A800FD3
:1036C000911FDF91CF911F910F9108950F931F9339
:1036D000CF93DF93EC019A01AB0160E070E00E94B0
:1036E0003B1B8C01CE010E94481A800F911FDF9175
:1036F000CF911F910F9108950F931F93CF93DF9355
:10370000EC010E943B1B8C01CE010E94481A800FE5
:10371000911FDF91CF911F910F9108958230E8F4AE
:10372000E82FF0E0EE0FFF1FED54F94F7183608337
:10373000813041F0809169008C7F842B80936900F7
:10374000E89A089580916900440F551F440F551F52
:10375000837F842B80936900E99A0895823068F40E
:10376000813011F0E89801C0E998E82FF0E0EE0F01
:10377000FF1FED54F94F1182108208951F920F928E
:103780000FB60F9211242F933F934F935F936F9334
:103790007F938F939F93AF93BF93EF93FF9380910A
:1037A000B3069091B406892B29F0E091B306F0910D
:1037B000B4060995FF91EF91BF91AF919F918F91C1
:1037C0007F916F915F914F913F912F910F900FBE1D
:1037D0000F901F9018951F920F920FB60F92112401
:1037E0002F933F934F935F936F937F938F939F9309
:1037F000AF93BF93EF93FF938091B5069091B60678
:10380000892B29F0E091B506F091B6060995FF9154
:10381000EF91BF91AF919F918F917F916F915F9148
:103820004F913F912F910F900FBE0F901F901895C1
:103830004F925F926F927F92AF92BF92CF92DF9240
:10384000EF92FF920F931F93CF93DF93CDB7DEB725
:1038500029013A01621B730B840B950B29893A8964
:103860004B895C892A193B094C095D09298B3A8BE4
:103870004B8B5C8B9B01AC0169897A898B899C8914
:103880000E940821E418F50806091709A801970104
:103890000E945A212A0D3B1D4C1D5D1DCA01B90114
:1038A000DF91CF911F910F91FF90EF90DF90CF901C
:1038B000BF90AF907F906F905F904F900895FC0104
:1038C000808191810C945422CF93DF93EC01888105
:1038D0009981009711F00E945422198218821D824A
:1038E0001C821B821A82DF91CF9108950F931F9340
:1038F000CF93DF93EC018B016F5F7F4F88819981BC
:103900000E94E322009731F0998388831B830A8306
:1039100081E001C080E0DF91CF911F910F91089568
:10392000CF93DF93EC0188819981892B29F08A81DB
:103930009B818617970760F4CE010E94761C88232E
:1039400041F08C819D81892B19F4E881F9811082E5
:1039500081E0DF91CF910895EF92FF920F931F9333
:10396000CF93DF93EC017B018A01BA010E94901C86
:10397000811104C0CE010E94641C07C01D830C830A
:10398000B701888199810E943B24CE01DF91CF91BC
:103990001F910F91FF90EF900895FC01118210820A
:1039A00013821282158214826115710559F0FB0190
:1039B00001900020E9F7AF0141505109461B570B18
:1039C0000C94AC1C0895CF93DF93EC016115710545
:1039D00061F0FB0101900020E9F7AF01415051096E
:1039E000461B570B0E94AC1C02C00E94641CCE01F7
:1039F000DF91CF910895BF92CF92DF92EF92FF9225
:103A00000F931F93CF93DF936C017B01EA01890130
:103A10002417350720F48D2FE901042F182F67E9AB
:103A200071E0C6010E94CD1CD70114968D919C9126
:103A30001597C817D907C8F48017910708F48C01A7
:103A4000D701ED91FC911197E00FF11FB08010822A
:103A50006D917C916C0F7D1FC6010E94E31CD70104
:103A6000ED91FC91E00FF11FB082C601DF91CF9183
:103A70001F910F91FF90EF90DF90CF90BF9008952E
:103A8000FC0180819181009711F00C94CB2360E0C0
:103A900070E0CB01089508950E94FC1D0E944B1D0B
:103AA0000E948507C5E2D8E10E94FA082097E1F359
:103AB0000E942518F9CF1F920F920FB60F92112472
:103AC0002F933F938F939F93AF93BF938091B806AB
:103AD0009091B906A091BA06B091BB063091B70695
:103AE00026E0230F2D3720F40296A11DB11D05C03D
:103AF00029E8230F0396A11DB11D2093B7068093DB
:103B0000B8069093B906A093BA06B093BB0680910D
:103B1000BC069091BD06A091BE06B091BF0601966D
:103B2000A11DB11D8093BC069093BD06A093BE0657
:103B3000B093BF06BF91AF919F918F913F912F910D
:103B40000F900FBE0F901F9018952FB7F8946091AB
:103B5000B8067091B9068091BA069091BB062FBF46
:103B600008953FB7F8948091BC069091BD06A0914E
:103B7000BE06B091BF0626B5A89B05C02F3F19F021
:103B80000196A11DB11D3FBF6627782F892F9A2F5F
:103B9000620F711D811D911D43E0660F771F881F05
:103BA000991F4A95D1F70895CF92DF92EF92FF9235
:103BB000CF93DF936B017C010E94B11DEB01C11417
:103BC000D104E104F10489F00E94181F0E94B11D84
:103BD0006C1B7D0B683E734090F381E0C81AD108DE
:103BE000E108F108C851DC4FEACFDF91CF91FF9097
:103BF000EF90DF90CF900895789484B5826084BD73
:103C000084B5816084BD85B5826085BD85B58160E0
:103C100085BDEEE6F0E0808181608083E1E8F0E040
:103C20001082808182608083808181608083E0E86F
:103C3000F0E0808181608083E1EBF0E0808184604E
:103C40008083E0EBF0E0808181608083EAE7F0E050
:103C500080818460808380818260808380818160B4
:103C600080838081806880831092C1000895809352
:103C7000190108958E3008F08E5087702091190137
:103C800090E4299F90011124822B80937C008091E5
:103C90007A00806480937A0080917A0086FDFCCF60
:103CA000809178002091790090E0922B08958330E4
:103CB00081F028F4813099F08230A1F008958730A6
:103CC000A9F08830B9F08430D1F4809180008F7DE4
:103CD00003C0809180008F7780938000089584B521
:103CE0008F7702C084B58F7D84BD08958091B00028
:103CF0008F7703C08091B0008F7D8093B0000895CE
:103D0000CF93DF9390E0FC01EF5DFE4F2491FC0127
:103D1000EB5CFE4F8491882349F190E0880F991F56
:103D2000FC01E35AFE4FA591B4918D5A9E4FFC01C0
:103D3000C591D4919FB7611108C0F8948C912095DA
:103D400082238C93888182230AC0623051F4F894D4
:103D50008C91322F309583238C938881822B88839A
:103D600004C0F8948C91822B8C939FBFDF91CF91EC
:103D700008950F931F93CF93DF931F92CDB7DEB7B4
:103D8000282F30E0F901E35FFE4F8491F901EF5DE8
:103D9000FE4F1491F901EB5CFE4F04910023C9F032
:103DA000882321F069830E94571E6981E02FF0E08B
:103DB000EE0FFF1FED5AFE4FA591B4919FB7F894F7
:103DC0008C91611103C01095812301C0812B8C93CC
:103DD0009FBF0F90DF91CF911F910F910895CF93C7
:103DE000DF93282F30E0F901E35FFE4F8491F90162
:103DF000EF5DFE4FD491F901EB5CFE4FC491CC23F3
:103E000091F081110E94571EEC2FF0E0EE0FFF1F82
:103E1000E75BFE4FA591B4912C912D2381E090E0BA
:103E200021F480E002C080E090E0DF91CF9108951E
:103E300008955058BB27AA270ED04DC13ED130F06F
:103E400043D120F031F49F3F11F41EF433C10EF43E
:103E5000E095E7FB29C1E92F4FD180F3BA1762073C
:103E600073078407950718F071F49EF567C10EF487
:103E7000E0950B2EBA2FA02D0B01B90190010C017A
:103E8000CA01A0011124FF27591B99F0593F50F492
:103E9000503E68F11A16F040A22F232F342F4427EA
:103EA000585FF3CF469537952795A795F0405395E2
:103EB000C9F77EF41F16BA0B620B730B840BBAF0B2
:103EC0009150A1F0FF0FBB1F661F771F881FC2F71D
:103ED0000EC0BA0F621F731F841F48F48795779531
:103EE0006795B795F7959E3F08F0B3CF9395880FE8
:103EF00008F09927EE0F9795879508950CD0EBC0A1
:103F0000E3D040F0DAD030F021F45F3F19F0CCC0BC
:103F1000511115C1CFC0F0D098F39923C9F355239F
:103F2000B1F3951B550BBB27AA27621773078407AC
:103F300038F09F5F5F4F220F331F441FAA1FA9F362
:103F400033D00E2E3AF0E0E830D091505040E69554
:103F5000001CCAF729D0FE2F27D0660F771F881FB5
:103F6000BB1F261737074807AB07B0E809F0BB0BA4
:103F7000802DBF01FF2793585F4F2AF09E3F5105C8
:103F800068F092C0DCC05F3FECF3983EDCF38695AE
:103F900077956795B795F7959F5FC9F7880F911D3E
:103FA0009695879597F90895E1E0660F771F881F2A
:103FB000BB1F621773078407BA0720F0621B730BDD
:103FC000840BBA0BEE1F88F7E095089504D068942F
:103FD000B111B5C0089598D088F09F5790F0B92FCF
:103FE0009927B751A0F0D1F0660F771F881F991F4E
:103FF0001AF0BA95C9F712C0B13081F09FD0B1E084
:1040000008959CC0672F782F8827B85F39F0B93F93
:10401000CCF3869577956795B395D9F73EF490954F
:104020008095709561957F4F8F4F9F4F0895E894CD
:1040300009C097FB3EF490958095709561957F4FF0
:104040008F4F9F4F9923A9F0F92F96E9BB2793959E
:10405000F695879577956795B795F111F8CFFAF4AE
:10406000BB0F11F460FF1BC06F5F7F4F8F4F9F4FDF
:1040700016C0882311F096E911C0772321F09EE83D
:10408000872F762F05C0662371F096E8862F70E0A3
:1040900060E02AF09A95660F771F881FDAF7880F7D
:1040A0009695879597F9089597F99F6780E870E04E
:1040B00060E008959FEF80EC089500240A9416169E
:1040C000170618060906089500240A941216130606
:1040D000140605060895092E0394000C11F4882394
:1040E00052F0BB0F40F4BF2B11F460FF04C06F5FB0
:1040F0007F4F8F4F9F4F089557FD9058440F551F86
:1041000059F05F3F71F04795880F97FB991F61F059
:104110009F3F79F087950895121613061406551FD0
:10412000F2CF4695F1DF08C0161617061806991F3C
:10413000F1CF86957105610508940895E894BB2731
:1041400066277727CB0197F908950BD0C4CFB5DF49
:1041500028F0BADF18F0952309F0A6CFABCF1124D1
:10416000EECFCADFA0F3959FD1F3950F50E0551F16
:10417000629FF001729FBB27F00DB11D639FAA27BC
:10418000F00DB11DAA1F649F6627B00DA11D661F0B
:10419000829F2227B00DA11D621F739FB00DA11D2C
:1041A000621F839FA00D611D221F749F3327A00DE6
:1041B000611D231F849F600D211D822F762F6A2F82
:1041C00011249F5750408AF0E1F088234AF0EE0F07
:1041D000FF1FBB1F661F771F881F91505040A9F714
:1041E0009E3F510570F060CFAACF5F3FECF3983E41
:1041F000DCF3869577956795B795F795E7959F5F7B
:10420000C1F7FE2B880F911D9695879597F9089514
:10421000DB018F939F930E948F21BF91AF91A29F4B
:10422000800D911DA39F900DB29F900D11240895B4
:10423000991B79E004C0991F961708F0961B881FF8
:104240007A95C9F78095089597FB072E16F4009488
:1042500007D077FD09D00E94A22107FC05D03EF4CB
:10426000909581959F4F0895709561957F4F089522
:10427000A1E21A2EAA1BBB1BFD010DC0AA1FBB1F6A
:10428000EE1FFF1FA217B307E407F50720F0A21BDC
:10429000B30BE40BF50B661F771F881F991F1A9449
:1042A00069F760957095809590959B01AC01BD0173
:1042B000CF010895052E97FB1EF400940E947121F2
:1042C00057FD07D00E94382107FC03D04EF40C9410
:1042D000712150954095309521953F4F4F4F5F4F3D
:1042E000089590958095709561957F4F8F4F9F4F62
:1042F0000895A29FB001B39FC001A39F700D811DBF
:104300001124911DB29F700D811D1124911D0895DE
:104310000E947921B7FF0895821B930B08950E9494
:104320007921A59F900DB49F900DA49F800D911DA4
:1043300011240895B7FF0C948F210E948F21821BB6
:10434000930B0895AA1BBB1B51E107C0AA1FBB1FFB
:10435000A617B70710F0A61BB70B881F991F5A9511
:10436000A9F780959095BC01CD010895EE0FFF1F30
:104370000590F491E02D0994CF93DF93823091055D
:1043800010F482E090E0E091C206F091C30620E0D4
:1043900030E0A0E0B0E0309739F14081518148171A
:1043A0005907B8F04817590771F482819381109723
:1043B00029F013969C938E9312972CC09093C3066A
:1043C0008093C20627C02115310531F042175307EB
:1043D00018F0A901DB0101C0EF019A01BD01DF0165
:1043E0000280F381E02DD7CF21153105F9F0281B8C
:1043F000390B2430310580F48A819B816115710568
:1044000021F0FB019383828304C09093C3068093C1
:10441000C206FE01329644C0FE01E20FF31F8193F3
:10442000919322503109398328833AC02091C006E4
:104430003091C106232B41F42091020130910301F8
:104440003093C1062093C0062091000130910101F4
:104450002115310541F42DB73EB74091040150912B
:104460000501241B350BE091C006F091C106E2174F
:10447000F307A0F42E1B3F0B2817390778F0AC0187
:104480004E5F5F4F2417350748F04E0F5F1F509364
:10449000C1064093C0068193919302C0E0E0F0E032
:1044A000CF01DF91CF910895CF93DF93009709F467
:1044B00087C0FC01329713821282C091C206D0914C
:1044C000C306209781F420813181280F391F809104
:1044D000C0069091C1068217930779F5F093C10643
:1044E000E093C0066DC0DE0120E030E0AE17BF07EC
:1044F00050F412964D915C9113979D014115510511
:1045000009F1DA01F3CFB383A28340815181840F93
:10451000951F8A179B0771F48D919C911197840FB9
:10452000951F02969183808312968D919C9113978B
:10453000938382832115310529F4F093C306E09318
:10454000C2063EC0D9011396FC93EE9312974D918B
:104550005D91A40FB51FEA17FB0779F48081918163
:10456000840F951F0296D90111969C938E93828198
:10457000938113969C938E931297E0E0F0E08A81EA
:104580009B81009719F0FE01EC01F9CFCE01029654
:1045900028813981820F931F2091C0063091C10676
:1045A0002817390769F4309729F41092C30610923E
:1045B000C20602C013821282D093C106C093C00605
:1045C000DF91CF910895A0E0B0E0E9EEF2E20C9423
:1045D0003427EC01CB01209719F40E94BC21B8C00C
:1045E000FE01E60FF71F9E0122503109E217F30783
:1045F00008F4ACC0D9010D911C911197061717074B
:10460000B8F00530110508F49FC0A80144505109C5
:104610004617570708F498C002501109061B170BDC
:10462000019311936D937C93CF010E9454228CC00F
:104630005B01A01AB10A4E01800E911EA091C20624
:10464000B091C306612C712C60E070E0109709F402
:1046500049C0A815B905C9F5ED90FC9011976701FF
:1046600042E0C40ED11CCA14DB0478F147018A1859
:104670009B08640142E0C40ED11C1296BC901297B4
:104680001396AC91B5E0CB16D10440F0B282A3836F
:1046900091828082D9018D939C9309C00E5F1F4F38
:1046A0000E0D1F1DF90111830083EB2DFA2F6115EB
:1046B000710531F0DB011396FC93EE93129744C021
:1046C000F093C306E093C2063FC06D917C911197B1
:1046D0006616770608F43B01BD0112960D90BC9159
:1046E000A02DB4CF6091C0067091C1066815790500
:1046F000E9F468167906D0F4409100015091010167
:104700004115510541F44DB75EB7609104017091B8
:104710000501461B570BE417F507C0F4F093C106DB
:10472000E093C006F901918380830EC00E94BC21F2
:104730007C01009759F0A801BE010E941E24CE0101
:104740000E945422C70104C0CE0102C080E090E064
:10475000CDB7DEB7EEE00C945027FC0188279927EF
:10476000E89421912032E9F3293010F02E30C8F37B
:104770002B3241F02D3239F4689404C00E948E240B
:10478000820F911D219120532A30C0F31EF4909581
:1047900081959F4F08951F93FC0199278827BC019D
:1047A000E89411911032E9F3193010F01E30C8F37B
:1047B0001B3251F01D3249F4689406C00E947924DE
:1047C000610F711D811D911D119110531A30B0F3AD
:1047D0003EF490958095709561957F4F8F4F9F4FD8
:1047E0001F910895FB01DC018D9105908019011046
:1047F000D9F3990B0895FC0105900020E9F7809505
:1048000090958E0F9F1F0895FB0155915523A9F098
:10481000BF01DC014D9145174111E1F759F4CD017C
:104820000590002049F04D9140154111C9F3FB015D
:104830004111EFCF81E090E001970895FB01DC0189
:1048400002C001900D9241505040D8F70895FC01EC
:104850008191861721F08823D9F7992708953197F8
:10486000CF010895FB01DC018D91019080190110A9
:10487000D9F3990B0895FB01DC0101900D92002002
:10488000E1F70895FB01DC014150504030F08D917B
:104890000190801919F40020B9F7881B990B08952D
:1048A000FB01DC014150504048F001900D92002086
:1048B000C9F701C01D9241505040E0F70895FB0137
:1048C00051915523A9F0BF01DC014D9145174111CC
:1048D000E1F759F4CD010190002049F04D914015C8
:1048E0004111C9F3FB014111EFCF81E090E0019745
:1048F0000895592F482F372F262F660F771F881FAF
:10490000991F660F771F881F991F620F731F841FDF
:10491000951F660F771F881F991F08957AE0979F4C
:10492000902D879F802D910D11240895AEE0B0E069
:10493000ECE9F4E20C943E270D891E8986E08C8315
:104940001A8309838FEF9FE79E838D83AE01475EB5
:104950005F4F6F89788DCE0101960E94B824EF8158
:10496000F885E00FF11F10822E96E4E00C945A2790
:10497000ACE0B0E0EEEBF4E20C9430277C016B018C
:104980008A01FC0117821682838181FFBDC1CE019D
:1049900001964C01F7019381F60193FD859193FFF8
:1049A00081916F01882309F4ABC1853239F493FDFD
:1049B000859193FF81916F01853229F4B70190E0D1
:1049C0000E94A026E7CF512C312C20E02032A0F409
:1049D0008B3269F030F4803259F0833269F420610F
:1049E0002CC08D3239F0803339F4216026C022602A
:1049F000246023C0286021C027FD27C030ED380F78
:104A00003A3078F426FF06C0FAE05F9E300D11249C
:104A1000532E13C08AE0389E300D1124332E2062AD
:104A20000CC08E3221F426FD6BC1206406C08C368A
:104A300011F4206802C0883641F4F60193FD859197
:104A400093FF81916F018111C1CF982F9F7D955464
:104A5000933028F40C5F1F4FFFE3F9830DC08336BA
:104A600031F0833771F0833509F05BC022C0F80163
:104A7000808189830E5F1F4F44244394512C54013D
:104A800015C03801F2E06F0E711CF801A080B180F2
:104A900026FF03C0652D70E002C06FEF7FEFC501F8
:104AA0002C870E9495262C0183012C852F77222E9E
:104AB00017C03801F2E06F0E711CF801A080B180C0
:104AC00026FF03C0652D70E002C06FEF7FEFC501C8
:104AD0002C870E948A262C012C852068222E830197
:104AE00023FC1BC0832D90E048165906B0F4B70193
:104AF00080E290E00E94A0263A94F4CFF50127FCD2
:104B0000859127FE81915F01B70190E00E94A02668
:104B100031103A94F1E04F1A51084114510471F7E1
:104B2000E5C0843611F0893639F5F80127FF07C052
:104B300060817181828193810C5F1F4F08C0608109
:104B40007181882777FD8095982F0E5F1F4F2F76F4
:104B5000B22E97FF09C090958095709561957F4F13
:104B60008F4F9F4F2068B22E2AE030E0A4010E94B0
:104B7000D226A82EA81844C0853729F42F7EB22E3D
:104B80002AE030E025C0F22FF97FBF2E8F36C1F02A
:104B900018F4883579F0B4C0803719F0883721F0DF
:104BA000AFC02F2F2061B22EB4FE0DC08B2D8460BC
:104BB000B82E09C024FF0AC09F2F9660B92E06C0E8
:104BC00028E030E005C020E130E002C020E132E022
:104BD000F801B7FE07C060817181828193810C5F0B
:104BE0001F4F06C06081718180E090E00E5F1F4F13
:104BF000A4010E94D226A82EA818FB2DFF77BF2E55
:104C0000B6FE0BC02B2D2E7FA51450F4B4FE0AC0A7
:104C1000B2FC08C02B2D2E7E05C07A2C2B2D03C094
:104C20007A2C01C0752C24FF0DC0FE01EA0DF11D88
:104C30008081803311F4297E09C022FF06C073945D
:104C4000739404C0822F867809F0739423FD13C0F7
:104C500020FF06C05A2C731418F4530C5718732CE9
:104C6000731468F4B70180E290E02C870E94A026BC
:104C700073942C85F5CF731410F4371801C0312CC0
:104C800024FF12C0B70180E390E02C870E94A02689
:104C90002C8522FF17C021FF03C088E590E002C0E9
:104CA00088E790E0B7010CC0822F867859F021FD8B
:104CB00002C080E201C08BE227FD8DE2B70190E0E7
:104CC0000E94A026A51438F4B70180E390E00E946A
:104CD000A0265A94F7CFAA94F401EA0DF11D808121
:104CE000B70190E00E94A026A110F5CF332009F46F
:104CF00051CEB70180E290E00E94A0263A94F6CF10
:104D0000F7018681978102C08FEF9FEF2C96E2E139
:104D10000C944C27FC010590615070400110D8F7AD
:104D2000809590958E0F9F1F0895FC0161507040F3
:104D300001900110D8F7809590958E0F9F1F0895D0
:104D40000F931F93CF93DF93182F092FEB018B81C4
:104D500081FD03C08FEF9FEF20C082FF10C04E8106
:104D60005F812C813D81421753077CF4E881F981F2
:104D70009F012F5F3F4F39832883108306C0E8854A
:104D8000F985812F0995892B29F72E813F812F5F86
:104D90003F4F3F832E83812F902FDF91CF911F9123
:104DA0000F910895FA01AA27283051F1203181F19D
:104DB000E8946F936E7F6E5F7F4F8F4F9F4FAF4F23
:104DC000B1E03ED0B4E03CD0670F781F891F9A1F36
:104DD000A11D680F791F8A1F911DA11D6A0F711DEA
:104DE000811D911DA11D20D009F468943F912AE0F6
:104DF000269F11243019305D3193DEF6CF010895DE
:104E0000462F4770405D4193B3E00FD0C9F7F6CF0E
:104E1000462F4F70405D4A3318F0495D31FD4052D6
:104E2000419302D0A9F7EACFB4E0A695979587956C
:104E300077956795BA95C9F700976105710508954B
:104E40009B01AC010A2E06945795479537952795F7
:104E5000BA95C9F7620F731F841F951FA01D08958F
:104E60002F923F924F925F926F927F928F929F927A
:104E7000AF92BF92CF92DF92EF92FF920F931F9368
:104E8000CF93DF93CDB7DEB7CA1BDB0B0FB6F89419
:104E9000DEBF0FBECDBF09942A88398848885F8459
:104EA0006E847D848C849B84AA84B984C884DF80CA
:104EB000EE80FD800C811B81AA81B981CE0FD11DAE
:104EC0000FB6F894DEBF0FBECDBFED01089511E01F
:104ED000C0E7D1E004C0FE010E94B8212296C2378B
:084EE000D107C9F7F894FFCFD8
:104EE8000000C40680000100000037303632353437
:104EF8003031303200401F00000141542B435049EB
:104F08004E3D00000000000041542B434D47533DE7
:104F18002200000000000000000000000000000067
:104F280000000000000041542B434D47573D22002C
:104F38000000000000000000000000000000000069
:104F480000000000526570436E743A200025356CED
:104F5800753A253031306C753A253034643A25304D
:104F680034753A253034753A253034753A2530345D
:104F7800753A253034750A006D616E616765642085
:104F8800746F2067657420686572650041542B430F
:104F98004D47443D312C340041542B434D53533D30
:104FA80030300053796E6354696D6520746D2E59E5
:104FB8006561723A200053686F7274596561723A7C
:104FC800200074656D705F5254435F435F78343AD4
:104FD800200074656D705F5254435F463A20005359
:104FE800686F727420596561723A20004461746573
:104FF80054696D654C6F6E673A200025356C753ABB
:10500800253031306C753A253034753A2530347591
:105018003A253034753A253034750041542B434DC8
:1050280047463D310041542B43504D533D22534D8B
:10503800222C22534D220041542B434C54533D31D2
:105048000041542657003A00476F7420486572653E
:1050580000456E7465726564204C6F6F7000525421
:10506800435F416C61726D3A20005365745F496E0D
:1050780074657276616C5F416C61726D3A200054A0
:105088006865206E65787420616C61726D20697343
:105098003A2000092D2D2D3E2000093C2D2D2D20D4
:1050A8000041542B434349440041542B47534E007D
:1050B8002B43434C4B3A20002C004F4B005E5A00C8
:1050C8002B434D47530041542B434D47443D30300B
:1050D80030002B434D47570041542B434D47443D27
:1050E800312C30005374617475733A20004C656E2E
:1050F8003A20002C313030303000444F574E4C4F5E
:1051080041440000000000A40ADC19980AB00ABC57
:105118000AC80A1F1C1F1E1F1E1F1F1E1F1E1F003E
:1051280000000099126C12411249125C126B1200B5
:105138000000003C13DC19A8131B138E13C01300C6
:105148000000007618DC19F8171118031854180015
:00000001FF
